{
    "contractName": "Multicall",
    "abi": [
        {
            "inputs": [
                {
                    "components": [
                        {
                            "internalType": "address",
                            "name": "target",
                            "type": "address"
                        },
                        {
                            "internalType": "bytes",
                            "name": "callData",
                            "type": "bytes"
                        }
                    ],
                    "internalType": "struct Multicall.Call[]",
                    "name": "calls",
                    "type": "tuple[]"
                }
            ],
            "name": "aggregate",
            "outputs": [
                {
                    "internalType": "uint256",
                    "name": "blockNumber",
                    "type": "uint256"
                },
                {
                    "internalType": "bytes[]",
                    "name": "returnData",
                    "type": "bytes[]"
                }
            ],
            "stateMutability": "nonpayable",
            "type": "function"
        },
        {
            "inputs": [
                {
                    "internalType": "uint256",
                    "name": "blockNumber",
                    "type": "uint256"
                }
            ],
            "name": "getBlockHash",
            "outputs": [
                {
                    "internalType": "bytes32",
                    "name": "blockHash",
                    "type": "bytes32"
                }
            ],
            "stateMutability": "view",
            "type": "function"
        },
        {
            "inputs": [],
            "name": "getCurrentBlockCoinbase",
            "outputs": [
                {
                    "internalType": "address",
                    "name": "coinbase",
                    "type": "address"
                }
            ],
            "stateMutability": "view",
            "type": "function"
        },
        {
            "inputs": [],
            "name": "getCurrentBlockDifficulty",
            "outputs": [
                {
                    "internalType": "uint256",
                    "name": "difficulty",
                    "type": "uint256"
                }
            ],
            "stateMutability": "view",
            "type": "function"
        },
        {
            "inputs": [],
            "name": "getCurrentBlockGasLimit",
            "outputs": [
                {
                    "internalType": "uint256",
                    "name": "gaslimit",
                    "type": "uint256"
                }
            ],
            "stateMutability": "view",
            "type": "function"
        },
        {
            "inputs": [],
            "name": "getCurrentBlockTimestamp",
            "outputs": [
                {
                    "internalType": "uint256",
                    "name": "timestamp",
                    "type": "uint256"
                }
            ],
            "stateMutability": "view",
            "type": "function"
        },
        {
            "inputs": [
                {
                    "internalType": "address",
                    "name": "addr",
                    "type": "address"
                }
            ],
            "name": "getHtBalance",
            "outputs": [
                {
                    "internalType": "uint256",
                    "name": "balance",
                    "type": "uint256"
                }
            ],
            "stateMutability": "view",
            "type": "function"
        },
        {
            "inputs": [],
            "name": "getLastBlockHash",
            "outputs": [
                {
                    "internalType": "bytes32",
                    "name": "blockHash",
                    "type": "bytes32"
                }
            ],
            "stateMutability": "view",
            "type": "function"
        }
    ],
    "bytecode": "608060405234801561001057600080fd5b50610552806100206000396000f3fe608060405234801561001057600080fd5b50600436106100885760003560e01c806372425d9d1161005b57806372425d9d146100e757806386d516e8146100ef578063a8b0574e146100f7578063ee82ac5e1461010c57610088565b80630aac29a21461008d5780630f28c97d146100b6578063252dba42146100be57806327e86d6e146100df575b600080fd5b6100a061009b366004610337565b61011f565b6040516100ad919061043c565b60405180910390f35b6100a061012c565b6100d16100cc366004610359565b610130565b6040516100ad929190610445565b6100a0610253565b6100a061025c565b6100a0610260565b6100ff610264565b6040516100ad9190610428565b6100a061011a3660046103f4565b610268565b6001600160a01b03163190565b4290565b8051439060609067ffffffffffffffff8111801561014d57600080fd5b5060405190808252806020026020018201604052801561018157816020015b606081526020019060019003908161016c5790505b50905060005b835181101561024d57600060608583815181106101a057fe5b6020026020010151600001516001600160a01b03168684815181106101c157fe5b6020026020010151602001516040516101da919061040c565b6000604051808303816000865af19150503d8060008114610217576040519150601f19603f3d011682016040523d82523d6000602084013e61021c565b606091505b50915091508161022b57600080fd5b8084848151811061023857fe5b60209081029190910101525050600101610187565b50915091565b60001943014090565b4490565b4590565b4190565b4090565b80356001600160a01b038116811461028357600080fd5b92915050565b60006040828403121561029a578081fd5b6102a460406104c5565b90506102b0838361026c565b815260208083013567ffffffffffffffff808211156102ce57600080fd5b818501915085601f8301126102e257600080fd5b8135818111156102f157600080fd5b610303601f8201601f191685016104c5565b9150808252868482850101111561031957600080fd5b80848401858401376000908201840152918301919091525092915050565b600060208284031215610348578081fd5b610352838361026c565b9392505050565b6000602080838503121561036b578182fd5b823567ffffffffffffffff80821115610382578384fd5b818501915085601f830112610395578384fd5b8135818111156103a3578485fd5b6103b084858302016104c5565b8181528481019250838501865b838110156103e6576103d48a888435890101610289565b855293860193908601906001016103bd565b509098975050505050505050565b600060208284031215610405578081fd5b5035919050565b6000825161041e8184602087016104ec565b9190910192915050565b6001600160a01b0391909116815260200190565b90815260200190565b600060408201848352602060408185015281855180845260608601915060608382028701019350828701855b828110156104b757878603605f190184528151805180885261049881888a018985016104ec565b601f01601f191696909601850195509284019290840190600101610471565b509398975050505050505050565b60405181810167ffffffffffffffff811182821017156104e457600080fd5b604052919050565b60005b838110156105075781810151838201526020016104ef565b83811115610516576000848401525b5050505056fea26469706673582212201fecf8f03aa6d23d0f6fd7431a50c6a2dfc37da73a0472a0b7c3f620646ec23364736f6c634300060c0033",
    "sourcePath": "/Users/Uni/Documents/GitHub/makiswap/makiswap-protocol/contracts/exchange/libraries/Multicall.sol",
    "compiler": {
        "name": "solc",
        "version": "0.6.12+commit.27d51765"
    },
    "functionHashes": {
        "aggregate((address,bytes)[])": "252dba42",
        "getBlockHash(uint256)": "ee82ac5e",
        "getCurrentBlockCoinbase()": "a8b0574e",
        "getCurrentBlockDifficulty()": "72425d9d",
        "getCurrentBlockGasLimit()": "86d516e8",
        "getCurrentBlockTimestamp()": "0f28c97d",
        "getHtBalance(address)": "0aac29a2",
        "getLastBlockHash()": "27e86d6e"
    },
    "gasEstimates": {
        "creation": {
            "codeDepositCost": "272400",
            "executionCost": "312",
            "totalCost": "272712"
        },
        "external": {
            "aggregate((address,bytes)[])": "infinite",
            "getBlockHash(uint256)": "388",
            "getCurrentBlockCoinbase()": "295",
            "getCurrentBlockDifficulty()": "227",
            "getCurrentBlockGasLimit()": "249",
            "getCurrentBlockTimestamp()": "250",
            "getHtBalance(address)": "1107",
            "getLastBlockHash()": "323"
        }
    }
}