{
    "contractName": "MakiswapRouter",
    "abi": [
        {
            "inputs": [
                {
                    "internalType": "address",
                    "name": "_factory",
                    "type": "address"
                },
                {
                    "internalType": "address",
                    "name": "_WHT",
                    "type": "address"
                }
            ],
            "stateMutability": "nonpayable",
            "type": "constructor"
        },
        {
            "inputs": [],
            "name": "WHT",
            "outputs": [
                {
                    "internalType": "address",
                    "name": "",
                    "type": "address"
                }
            ],
            "stateMutability": "view",
            "type": "function"
        },
        {
            "inputs": [
                {
                    "internalType": "address",
                    "name": "tokenA",
                    "type": "address"
                },
                {
                    "internalType": "address",
                    "name": "tokenB",
                    "type": "address"
                },
                {
                    "internalType": "uint256",
                    "name": "amountADesired",
                    "type": "uint256"
                },
                {
                    "internalType": "uint256",
                    "name": "amountBDesired",
                    "type": "uint256"
                },
                {
                    "internalType": "uint256",
                    "name": "amountAMin",
                    "type": "uint256"
                },
                {
                    "internalType": "uint256",
                    "name": "amountBMin",
                    "type": "uint256"
                },
                {
                    "internalType": "address",
                    "name": "to",
                    "type": "address"
                },
                {
                    "internalType": "uint256",
                    "name": "deadline",
                    "type": "uint256"
                }
            ],
            "name": "addLiquidity",
            "outputs": [
                {
                    "internalType": "uint256",
                    "name": "amountA",
                    "type": "uint256"
                },
                {
                    "internalType": "uint256",
                    "name": "amountB",
                    "type": "uint256"
                },
                {
                    "internalType": "uint256",
                    "name": "liquidity",
                    "type": "uint256"
                }
            ],
            "stateMutability": "nonpayable",
            "type": "function"
        },
        {
            "inputs": [
                {
                    "internalType": "address",
                    "name": "token",
                    "type": "address"
                },
                {
                    "internalType": "uint256",
                    "name": "amountTokenDesired",
                    "type": "uint256"
                },
                {
                    "internalType": "uint256",
                    "name": "amountTokenMin",
                    "type": "uint256"
                },
                {
                    "internalType": "uint256",
                    "name": "amountHTMin",
                    "type": "uint256"
                },
                {
                    "internalType": "address",
                    "name": "to",
                    "type": "address"
                },
                {
                    "internalType": "uint256",
                    "name": "deadline",
                    "type": "uint256"
                }
            ],
            "name": "addLiquidityHT",
            "outputs": [
                {
                    "internalType": "uint256",
                    "name": "amountToken",
                    "type": "uint256"
                },
                {
                    "internalType": "uint256",
                    "name": "amountHT",
                    "type": "uint256"
                },
                {
                    "internalType": "uint256",
                    "name": "liquidity",
                    "type": "uint256"
                }
            ],
            "stateMutability": "payable",
            "type": "function"
        },
        {
            "inputs": [],
            "name": "factory",
            "outputs": [
                {
                    "internalType": "address",
                    "name": "",
                    "type": "address"
                }
            ],
            "stateMutability": "view",
            "type": "function"
        },
        {
            "inputs": [
                {
                    "internalType": "uint256",
                    "name": "amountOut",
                    "type": "uint256"
                },
                {
                    "internalType": "uint256",
                    "name": "reserveIn",
                    "type": "uint256"
                },
                {
                    "internalType": "uint256",
                    "name": "reserveOut",
                    "type": "uint256"
                }
            ],
            "name": "getAmountIn",
            "outputs": [
                {
                    "internalType": "uint256",
                    "name": "amountIn",
                    "type": "uint256"
                }
            ],
            "stateMutability": "pure",
            "type": "function"
        },
        {
            "inputs": [
                {
                    "internalType": "uint256",
                    "name": "amountIn",
                    "type": "uint256"
                },
                {
                    "internalType": "uint256",
                    "name": "reserveIn",
                    "type": "uint256"
                },
                {
                    "internalType": "uint256",
                    "name": "reserveOut",
                    "type": "uint256"
                }
            ],
            "name": "getAmountOut",
            "outputs": [
                {
                    "internalType": "uint256",
                    "name": "amountOut",
                    "type": "uint256"
                }
            ],
            "stateMutability": "pure",
            "type": "function"
        },
        {
            "inputs": [
                {
                    "internalType": "uint256",
                    "name": "amountOut",
                    "type": "uint256"
                },
                {
                    "internalType": "address[]",
                    "name": "path",
                    "type": "address[]"
                }
            ],
            "name": "getAmountsIn",
            "outputs": [
                {
                    "internalType": "uint256[]",
                    "name": "amounts",
                    "type": "uint256[]"
                }
            ],
            "stateMutability": "view",
            "type": "function"
        },
        {
            "inputs": [
                {
                    "internalType": "uint256",
                    "name": "amountIn",
                    "type": "uint256"
                },
                {
                    "internalType": "address[]",
                    "name": "path",
                    "type": "address[]"
                }
            ],
            "name": "getAmountsOut",
            "outputs": [
                {
                    "internalType": "uint256[]",
                    "name": "amounts",
                    "type": "uint256[]"
                }
            ],
            "stateMutability": "view",
            "type": "function"
        },
        {
            "inputs": [
                {
                    "internalType": "uint256",
                    "name": "amountA",
                    "type": "uint256"
                },
                {
                    "internalType": "uint256",
                    "name": "reserveA",
                    "type": "uint256"
                },
                {
                    "internalType": "uint256",
                    "name": "reserveB",
                    "type": "uint256"
                }
            ],
            "name": "quote",
            "outputs": [
                {
                    "internalType": "uint256",
                    "name": "amountB",
                    "type": "uint256"
                }
            ],
            "stateMutability": "pure",
            "type": "function"
        },
        {
            "inputs": [
                {
                    "internalType": "address",
                    "name": "tokenA",
                    "type": "address"
                },
                {
                    "internalType": "address",
                    "name": "tokenB",
                    "type": "address"
                },
                {
                    "internalType": "uint256",
                    "name": "liquidity",
                    "type": "uint256"
                },
                {
                    "internalType": "uint256",
                    "name": "amountAMin",
                    "type": "uint256"
                },
                {
                    "internalType": "uint256",
                    "name": "amountBMin",
                    "type": "uint256"
                },
                {
                    "internalType": "address",
                    "name": "to",
                    "type": "address"
                },
                {
                    "internalType": "uint256",
                    "name": "deadline",
                    "type": "uint256"
                }
            ],
            "name": "removeLiquidity",
            "outputs": [
                {
                    "internalType": "uint256",
                    "name": "amountA",
                    "type": "uint256"
                },
                {
                    "internalType": "uint256",
                    "name": "amountB",
                    "type": "uint256"
                }
            ],
            "stateMutability": "nonpayable",
            "type": "function"
        },
        {
            "inputs": [
                {
                    "internalType": "address",
                    "name": "token",
                    "type": "address"
                },
                {
                    "internalType": "uint256",
                    "name": "liquidity",
                    "type": "uint256"
                },
                {
                    "internalType": "uint256",
                    "name": "amountTokenMin",
                    "type": "uint256"
                },
                {
                    "internalType": "uint256",
                    "name": "amountHTMin",
                    "type": "uint256"
                },
                {
                    "internalType": "address",
                    "name": "to",
                    "type": "address"
                },
                {
                    "internalType": "uint256",
                    "name": "deadline",
                    "type": "uint256"
                }
            ],
            "name": "removeLiquidityHT",
            "outputs": [
                {
                    "internalType": "uint256",
                    "name": "amountToken",
                    "type": "uint256"
                },
                {
                    "internalType": "uint256",
                    "name": "amountHT",
                    "type": "uint256"
                }
            ],
            "stateMutability": "nonpayable",
            "type": "function"
        },
        {
            "inputs": [
                {
                    "internalType": "address",
                    "name": "token",
                    "type": "address"
                },
                {
                    "internalType": "uint256",
                    "name": "liquidity",
                    "type": "uint256"
                },
                {
                    "internalType": "uint256",
                    "name": "amountTokenMin",
                    "type": "uint256"
                },
                {
                    "internalType": "uint256",
                    "name": "amountHTMin",
                    "type": "uint256"
                },
                {
                    "internalType": "address",
                    "name": "to",
                    "type": "address"
                },
                {
                    "internalType": "uint256",
                    "name": "deadline",
                    "type": "uint256"
                }
            ],
            "name": "removeLiquidityHTSupportingFeeOnTransferTokens",
            "outputs": [
                {
                    "internalType": "uint256",
                    "name": "amountHT",
                    "type": "uint256"
                }
            ],
            "stateMutability": "nonpayable",
            "type": "function"
        },
        {
            "inputs": [
                {
                    "internalType": "address",
                    "name": "token",
                    "type": "address"
                },
                {
                    "internalType": "uint256",
                    "name": "liquidity",
                    "type": "uint256"
                },
                {
                    "internalType": "uint256",
                    "name": "amountTokenMin",
                    "type": "uint256"
                },
                {
                    "internalType": "uint256",
                    "name": "amountHTMin",
                    "type": "uint256"
                },
                {
                    "internalType": "address",
                    "name": "to",
                    "type": "address"
                },
                {
                    "internalType": "uint256",
                    "name": "deadline",
                    "type": "uint256"
                },
                {
                    "internalType": "bool",
                    "name": "approveMax",
                    "type": "bool"
                },
                {
                    "internalType": "uint8",
                    "name": "v",
                    "type": "uint8"
                },
                {
                    "internalType": "bytes32",
                    "name": "r",
                    "type": "bytes32"
                },
                {
                    "internalType": "bytes32",
                    "name": "s",
                    "type": "bytes32"
                }
            ],
            "name": "removeLiquidityHTWithPermit",
            "outputs": [
                {
                    "internalType": "uint256",
                    "name": "amountToken",
                    "type": "uint256"
                },
                {
                    "internalType": "uint256",
                    "name": "amountHT",
                    "type": "uint256"
                }
            ],
            "stateMutability": "nonpayable",
            "type": "function"
        },
        {
            "inputs": [
                {
                    "internalType": "address",
                    "name": "token",
                    "type": "address"
                },
                {
                    "internalType": "uint256",
                    "name": "liquidity",
                    "type": "uint256"
                },
                {
                    "internalType": "uint256",
                    "name": "amountTokenMin",
                    "type": "uint256"
                },
                {
                    "internalType": "uint256",
                    "name": "amountHTMin",
                    "type": "uint256"
                },
                {
                    "internalType": "address",
                    "name": "to",
                    "type": "address"
                },
                {
                    "internalType": "uint256",
                    "name": "deadline",
                    "type": "uint256"
                },
                {
                    "internalType": "bool",
                    "name": "approveMax",
                    "type": "bool"
                },
                {
                    "internalType": "uint8",
                    "name": "v",
                    "type": "uint8"
                },
                {
                    "internalType": "bytes32",
                    "name": "r",
                    "type": "bytes32"
                },
                {
                    "internalType": "bytes32",
                    "name": "s",
                    "type": "bytes32"
                }
            ],
            "name": "removeLiquidityHTWithPermitSupportingFeeOnTransferTokens",
            "outputs": [
                {
                    "internalType": "uint256",
                    "name": "amountHT",
                    "type": "uint256"
                }
            ],
            "stateMutability": "nonpayable",
            "type": "function"
        },
        {
            "inputs": [
                {
                    "internalType": "address",
                    "name": "tokenA",
                    "type": "address"
                },
                {
                    "internalType": "address",
                    "name": "tokenB",
                    "type": "address"
                },
                {
                    "internalType": "uint256",
                    "name": "liquidity",
                    "type": "uint256"
                },
                {
                    "internalType": "uint256",
                    "name": "amountAMin",
                    "type": "uint256"
                },
                {
                    "internalType": "uint256",
                    "name": "amountBMin",
                    "type": "uint256"
                },
                {
                    "internalType": "address",
                    "name": "to",
                    "type": "address"
                },
                {
                    "internalType": "uint256",
                    "name": "deadline",
                    "type": "uint256"
                },
                {
                    "internalType": "bool",
                    "name": "approveMax",
                    "type": "bool"
                },
                {
                    "internalType": "uint8",
                    "name": "v",
                    "type": "uint8"
                },
                {
                    "internalType": "bytes32",
                    "name": "r",
                    "type": "bytes32"
                },
                {
                    "internalType": "bytes32",
                    "name": "s",
                    "type": "bytes32"
                }
            ],
            "name": "removeLiquidityWithPermit",
            "outputs": [
                {
                    "internalType": "uint256",
                    "name": "amountA",
                    "type": "uint256"
                },
                {
                    "internalType": "uint256",
                    "name": "amountB",
                    "type": "uint256"
                }
            ],
            "stateMutability": "nonpayable",
            "type": "function"
        },
        {
            "inputs": [
                {
                    "internalType": "uint256",
                    "name": "amountOutMin",
                    "type": "uint256"
                },
                {
                    "internalType": "address[]",
                    "name": "path",
                    "type": "address[]"
                },
                {
                    "internalType": "address",
                    "name": "to",
                    "type": "address"
                },
                {
                    "internalType": "uint256",
                    "name": "deadline",
                    "type": "uint256"
                }
            ],
            "name": "swapExactHTForTokens",
            "outputs": [
                {
                    "internalType": "uint256[]",
                    "name": "amounts",
                    "type": "uint256[]"
                }
            ],
            "stateMutability": "payable",
            "type": "function"
        },
        {
            "inputs": [
                {
                    "internalType": "uint256",
                    "name": "amountOutMin",
                    "type": "uint256"
                },
                {
                    "internalType": "address[]",
                    "name": "path",
                    "type": "address[]"
                },
                {
                    "internalType": "address",
                    "name": "to",
                    "type": "address"
                },
                {
                    "internalType": "uint256",
                    "name": "deadline",
                    "type": "uint256"
                }
            ],
            "name": "swapExactHTForTokensSupportingFeeOnTransferTokens",
            "outputs": [],
            "stateMutability": "payable",
            "type": "function"
        },
        {
            "inputs": [
                {
                    "internalType": "uint256",
                    "name": "amountIn",
                    "type": "uint256"
                },
                {
                    "internalType": "uint256",
                    "name": "amountOutMin",
                    "type": "uint256"
                },
                {
                    "internalType": "address[]",
                    "name": "path",
                    "type": "address[]"
                },
                {
                    "internalType": "address",
                    "name": "to",
                    "type": "address"
                },
                {
                    "internalType": "uint256",
                    "name": "deadline",
                    "type": "uint256"
                }
            ],
            "name": "swapExactTokensForHT",
            "outputs": [
                {
                    "internalType": "uint256[]",
                    "name": "amounts",
                    "type": "uint256[]"
                }
            ],
            "stateMutability": "nonpayable",
            "type": "function"
        },
        {
            "inputs": [
                {
                    "internalType": "uint256",
                    "name": "amountIn",
                    "type": "uint256"
                },
                {
                    "internalType": "uint256",
                    "name": "amountOutMin",
                    "type": "uint256"
                },
                {
                    "internalType": "address[]",
                    "name": "path",
                    "type": "address[]"
                },
                {
                    "internalType": "address",
                    "name": "to",
                    "type": "address"
                },
                {
                    "internalType": "uint256",
                    "name": "deadline",
                    "type": "uint256"
                }
            ],
            "name": "swapExactTokensForHTSupportingFeeOnTransferTokens",
            "outputs": [],
            "stateMutability": "nonpayable",
            "type": "function"
        },
        {
            "inputs": [
                {
                    "internalType": "uint256",
                    "name": "amountIn",
                    "type": "uint256"
                },
                {
                    "internalType": "uint256",
                    "name": "amountOutMin",
                    "type": "uint256"
                },
                {
                    "internalType": "address[]",
                    "name": "path",
                    "type": "address[]"
                },
                {
                    "internalType": "address",
                    "name": "to",
                    "type": "address"
                },
                {
                    "internalType": "uint256",
                    "name": "deadline",
                    "type": "uint256"
                }
            ],
            "name": "swapExactTokensForTokens",
            "outputs": [
                {
                    "internalType": "uint256[]",
                    "name": "amounts",
                    "type": "uint256[]"
                }
            ],
            "stateMutability": "nonpayable",
            "type": "function"
        },
        {
            "inputs": [
                {
                    "internalType": "uint256",
                    "name": "amountIn",
                    "type": "uint256"
                },
                {
                    "internalType": "uint256",
                    "name": "amountOutMin",
                    "type": "uint256"
                },
                {
                    "internalType": "address[]",
                    "name": "path",
                    "type": "address[]"
                },
                {
                    "internalType": "address",
                    "name": "to",
                    "type": "address"
                },
                {
                    "internalType": "uint256",
                    "name": "deadline",
                    "type": "uint256"
                }
            ],
            "name": "swapExactTokensForTokensSupportingFeeOnTransferTokens",
            "outputs": [],
            "stateMutability": "nonpayable",
            "type": "function"
        },
        {
            "inputs": [
                {
                    "internalType": "uint256",
                    "name": "amountOut",
                    "type": "uint256"
                },
                {
                    "internalType": "address[]",
                    "name": "path",
                    "type": "address[]"
                },
                {
                    "internalType": "address",
                    "name": "to",
                    "type": "address"
                },
                {
                    "internalType": "uint256",
                    "name": "deadline",
                    "type": "uint256"
                }
            ],
            "name": "swapHTForExactTokens",
            "outputs": [
                {
                    "internalType": "uint256[]",
                    "name": "amounts",
                    "type": "uint256[]"
                }
            ],
            "stateMutability": "payable",
            "type": "function"
        },
        {
            "inputs": [
                {
                    "internalType": "uint256",
                    "name": "amountOut",
                    "type": "uint256"
                },
                {
                    "internalType": "uint256",
                    "name": "amountInMax",
                    "type": "uint256"
                },
                {
                    "internalType": "address[]",
                    "name": "path",
                    "type": "address[]"
                },
                {
                    "internalType": "address",
                    "name": "to",
                    "type": "address"
                },
                {
                    "internalType": "uint256",
                    "name": "deadline",
                    "type": "uint256"
                }
            ],
            "name": "swapTokensForExactHT",
            "outputs": [
                {
                    "internalType": "uint256[]",
                    "name": "amounts",
                    "type": "uint256[]"
                }
            ],
            "stateMutability": "nonpayable",
            "type": "function"
        },
        {
            "inputs": [
                {
                    "internalType": "uint256",
                    "name": "amountOut",
                    "type": "uint256"
                },
                {
                    "internalType": "uint256",
                    "name": "amountInMax",
                    "type": "uint256"
                },
                {
                    "internalType": "address[]",
                    "name": "path",
                    "type": "address[]"
                },
                {
                    "internalType": "address",
                    "name": "to",
                    "type": "address"
                },
                {
                    "internalType": "uint256",
                    "name": "deadline",
                    "type": "uint256"
                }
            ],
            "name": "swapTokensForExactTokens",
            "outputs": [
                {
                    "internalType": "uint256[]",
                    "name": "amounts",
                    "type": "uint256[]"
                }
            ],
            "stateMutability": "nonpayable",
            "type": "function"
        },
        {
            "stateMutability": "payable",
            "type": "receive"
        }
    ],
    "bytecode": "60c060405234801561001057600080fd5b506040516200476a3803806200476a8339818101604052604081101561003557600080fd5b5080516020909101516001600160601b0319606092831b8116608052911b1660a05260805160601c60a05160601c6145e5620001856000398061015f5280610e2a5280610f9e52806110545280611110528061141752806115a452806116a4528061175352806118295280611b905280611bdc5280611d0f5280611d655280611d995280611e0d5280611fad52806120f05280612178528061243d52806124d2528061254652806127dd52806128185280612b875280612ccd5280612d55525080610cb35280610cec5280610ed952806110ee5280611243528061131a52806114a552806118b75280611bba5280611d43528061204052806121aa5280612349528061257852806128f85280612af05280612b195280612c1a5280612d875280612eeb528061347552806135f45280613a145280613a4a5280613d895280613e375280613eb752506145e56000f3fe60806040526004361061014f5760003560e01c806379836890116100b6578063b08700c61161006f578063b08700c614610a37578063baa2abde14610a8a578063c45a015514610ae7578063d06ca61f14610afc578063de6b825614610bb1578063e8e3370014610c3557610188565b806379836890146107c95780637edecb451461082d57806385f8c259146108b15780638803dbee146108e7578063a223880b1461097d578063ad615dec14610a0157610188565b806346eb60511161010857806346eb6051146105105780634883f12a146105a65780634b361208146105f95780635c11d7951461068f5780635cb4859214610725578063613fc2491461075657610188565b8063054d50d41461018d5780631f00ca74146101d55780632195995c146102da57806325ae1cda1461037157806329dd23271461040757806338ed17391461047a57610188565b3661018857336001600160a01b037f0000000000000000000000000000000000000000000000000000000000000000161461018657fe5b005b600080fd5b34801561019957600080fd5b506101c3600480360360608110156101b057600080fd5b5080359060208101359060400135610c97565b60408051918252519081900360200190f35b3480156101e157600080fd5b5061028a600480360360408110156101f857600080fd5b81359190810190604081016020820135600160201b81111561021957600080fd5b82018360208201111561022b57600080fd5b803590602001918460208302840111600160201b8311171561024c57600080fd5b919080806020026020016040519081016040528093929190818152602001838360200280828437600092019190915250929550610cac945050505050565b60408051602080825283518183015283519192839290830191858101910280838360005b838110156102c65781810151838201526020016102ae565b505050509050019250505060405180910390f35b3480156102e657600080fd5b5061035860048036036101608110156102fe57600080fd5b506001600160a01b038135811691602081013582169160408201359160608101359160808201359160a08101359091169060c08101359060e081013515159060ff6101008201351690610120810135906101400135610ce2565b6040805192835260208301919091528051918290030190f35b34801561037d57600080fd5b50610186600480360360a081101561039457600080fd5b813591602081013591810190606081016040820135600160201b8111156103ba57600080fd5b8201836020820111156103cc57600080fd5b803590602001918460208302840111600160201b831117156103ed57600080fd5b91935091506001600160a01b038135169060200135610ddc565b34801561041357600080fd5b50610358600480360361014081101561042b57600080fd5b506001600160a01b0381358116916020810135916040820135916060810135916080820135169060a08101359060c081013515159060ff60e082013516906101008101359061012001356110e4565b34801561048657600080fd5b5061028a600480360360a081101561049d57600080fd5b813591602081013591810190606081016040820135600160201b8111156104c357600080fd5b8201836020820111156104d557600080fd5b803590602001918460208302840111600160201b831117156104f657600080fd5b91935091506001600160a01b0381351690602001356111f8565b34801561051c57600080fd5b5061028a600480360360a081101561053357600080fd5b813591602081013591810190606081016040820135600160201b81111561055957600080fd5b82018360208201111561056b57600080fd5b803590602001918460208302840111600160201b8311171561058c57600080fd5b91935091506001600160a01b0381351690602001356113c7565b3480156105b257600080fd5b506101c3600480360360c08110156105c957600080fd5b506001600160a01b0381358116916020810135916040820135916060810135916080820135169060a00135611658565b34801561060557600080fd5b5061028a600480360360a081101561061c57600080fd5b813591602081013591810190606081016040820135600160201b81111561064257600080fd5b82018360208201111561065457600080fd5b803590602001918460208302840111600160201b8311171561067557600080fd5b91935091506001600160a01b0381351690602001356117d9565b34801561069b57600080fd5b50610186600480360360a08110156106b257600080fd5b813591602081013591810190606081016040820135600160201b8111156106d857600080fd5b8201836020820111156106ea57600080fd5b803590602001918460208302840111600160201b8311171561070b57600080fd5b91935091506001600160a01b038135169060200135611968565b34801561073157600080fd5b5061073a611b8e565b604080516001600160a01b039092168252519081900360200190f35b34801561076257600080fd5b506101c3600480360361014081101561077a57600080fd5b506001600160a01b0381358116916020810135916040820135916060810135916080820135169060a08101359060c081013515159060ff60e08201351690610100810135906101200135611bb2565b61080f600480360360c08110156107df57600080fd5b506001600160a01b0381358116916020810135916040820135916060810135916080820135169060a00135611cc0565b60408051938452602084019290925282820152519081900360600190f35b61028a6004803603608081101561084357600080fd5b81359190810190604081016020820135600160201b81111561086457600080fd5b82018360208201111561087657600080fd5b803590602001918460208302840111600160201b8311171561089757600080fd5b91935091506001600160a01b038135169060200135611f65565b3480156108bd57600080fd5b506101c3600480360360608110156108d457600080fd5b50803590602081013590604001356122f1565b3480156108f357600080fd5b5061028a600480360360a081101561090a57600080fd5b813591602081013591810190606081016040820135600160201b81111561093057600080fd5b82018360208201111561094257600080fd5b803590602001918460208302840111600160201b8311171561096357600080fd5b91935091506001600160a01b0381351690602001356122fe565b6101866004803603608081101561099357600080fd5b81359190810190604081016020820135600160201b8111156109b457600080fd5b8201836020820111156109c657600080fd5b803590602001918460208302840111600160201b831117156109e757600080fd5b91935091506001600160a01b0381351690602001356123f7565b348015610a0d57600080fd5b506101c360048036036060811015610a2457600080fd5b5080359060208101359060400135612783565b348015610a4357600080fd5b50610358600480360360c0811015610a5a57600080fd5b506001600160a01b0381358116916020810135916040820135916060810135916080820135169060a00135612790565b348015610a9657600080fd5b50610358600480360360e0811015610aad57600080fd5b506001600160a01b038135811691602081013582169160408201359160608101359160808201359160a08101359091169060c001356128aa565b348015610af357600080fd5b5061073a612aee565b348015610b0857600080fd5b5061028a60048036036040811015610b1f57600080fd5b81359190810190604081016020820135600160201b811115610b4057600080fd5b820183602082011115610b5257600080fd5b803590602001918460208302840111600160201b83111715610b7357600080fd5b919080806020026020016040519081016040528093929190818152602001838360200280828437600092019190915250929550612b12945050505050565b61028a60048036036080811015610bc757600080fd5b81359190810190604081016020820135600160201b811115610be857600080fd5b820183602082011115610bfa57600080fd5b803590602001918460208302840111600160201b83111715610c1b57600080fd5b91935091506001600160a01b038135169060200135612b3f565b348015610c4157600080fd5b5061080f6004803603610100811015610c5957600080fd5b506001600160a01b038135811691602081013582169160408201359160608101359160808201359160a08101359160c0820135169060e00135612e88565b6000610ca4848484612fc4565b949350505050565b6060610cd97f000000000000000000000000000000000000000000000000000000000000000084846130b4565b90505b92915050565b6000806000610d127f00000000000000000000000000000000000000000000000000000000000000008f8f613201565b9050600087610d21578c610d25565b6000195b6040805163d505accf60e01b815233600482015230602482015260448101839052606481018c905260ff8a16608482015260a4810189905260c4810188905290519192506001600160a01b0384169163d505accf9160e48082019260009290919082900301818387803b158015610d9b57600080fd5b505af1158015610daf573d6000803e3d6000fd5b50505050610dc28f8f8f8f8f8f8f6128aa565b809450819550505050509b509b9950505050505050505050565b8042811015610e20576040805162461bcd60e51b815260206004820152601760248201526000805160206144a4833981519152604482015290519081900360640190fd5b6001600160a01b037f00000000000000000000000000000000000000000000000000000000000000001685856000198101818110610e5a57fe5b905060200201356001600160a01b03166001600160a01b031614610eb3576040805162461bcd60e51b815260206004820152601c60248201526000805160206143cc833981519152604482015290519081900360640190fd5b610f3d85856000818110610ec357fe5b905060200201356001600160a01b031633610f377f000000000000000000000000000000000000000000000000000000000000000089896000818110610f0557fe5b905060200201356001600160a01b03168a8a6001818110610f2257fe5b905060200201356001600160a01b0316613201565b8a6132c1565b610f7b85858080602002602001604051908101604052809392919081815260200183836020028082843760009201919091525030925061341e915050565b604080516370a0823160e01b815230600482015290516000916001600160a01b037f000000000000000000000000000000000000000000000000000000000000000016916370a0823191602480820192602092909190829003018186803b158015610fe557600080fd5b505afa158015610ff9573d6000803e3d6000fd5b505050506040513d602081101561100f57600080fd5b50519050868110156110525760405162461bcd60e51b815260040180806020018281038252602a815260200180614514602a913960400191505060405180910390fd5b7f00000000000000000000000000000000000000000000000000000000000000006001600160a01b0316632e1a7d4d826040518263ffffffff1660e01b815260040180828152602001915050600060405180830381600087803b1580156110b857600080fd5b505af11580156110cc573d6000803e3d6000fd5b505050506110da848261373b565b5050505050505050565b60008060006111347f00000000000000000000000000000000000000000000000000000000000000008e7f0000000000000000000000000000000000000000000000000000000000000000613201565b9050600087611143578c611147565b6000195b6040805163d505accf60e01b815233600482015230602482015260448101839052606481018c905260ff8a16608482015260a4810189905260c4810188905290519192506001600160a01b0384169163d505accf9160e48082019260009290919082900301818387803b1580156111bd57600080fd5b505af11580156111d1573d6000803e3d6000fd5b505050506111e38e8e8e8e8e8e612790565b909f909e509c50505050505050505050505050565b6060814281101561123e576040805162461bcd60e51b815260206004820152601760248201526000805160206144a4833981519152604482015290519081900360640190fd5b61129c7f00000000000000000000000000000000000000000000000000000000000000008988888080602002602001604051908101604052809392919081815260200183836020028082843760009201919091525061382e92505050565b915086826001845103815181106112af57fe5b602002602001015110156112f45760405162461bcd60e51b815260040180806020018281038252602a815260200180614514602a913960400191505060405180910390fd5b61137d8686600081811061130457fe5b905060200201356001600160a01b0316336113637f00000000000000000000000000000000000000000000000000000000000000008a8a600081811061134657fe5b905060200201356001600160a01b03168b8b6001818110610f2257fe5b8560008151811061137057fe5b60200260200101516132c1565b6113bc82878780806020026020016040519081016040528093929190818152602001838360200280828437600092019190915250899250613965915050565b509695505050505050565b6060814281101561140d576040805162461bcd60e51b815260206004820152601760248201526000805160206144a4833981519152604482015290519081900360640190fd5b6001600160a01b037f0000000000000000000000000000000000000000000000000000000000000000168686600019810181811061144757fe5b905060200201356001600160a01b03166001600160a01b0316146114a0576040805162461bcd60e51b815260206004820152601c60248201526000805160206143cc833981519152604482015290519081900360640190fd5b6114fe7f0000000000000000000000000000000000000000000000000000000000000000898888808060200260200160405190810160405280939291908181526020018383602002808284376000920191909152506130b492505050565b9150868260008151811061150e57fe5b602002602001015111156115535760405162461bcd60e51b815260040180806020018281038252602681526020018061447e6026913960400191505060405180910390fd5b6115638686600081811061130457fe5b6115a282878780806020026020016040519081016040528093929190818152602001838360200280828437600092019190915250309250613965915050565b7f00000000000000000000000000000000000000000000000000000000000000006001600160a01b0316632e1a7d4d836001855103815181106115e157fe5b60200260200101516040518263ffffffff1660e01b815260040180828152602001915050600060405180830381600087803b15801561161f57600080fd5b505af1158015611633573d6000803e3d6000fd5b505050506113bc848360018551038151811061164b57fe5b602002602001015161373b565b6000814281101561169e576040805162461bcd60e51b815260206004820152601760248201526000805160206144a4833981519152604482015290519081900360640190fd5b6116cd887f000000000000000000000000000000000000000000000000000000000000000089898930896128aa565b604080516370a0823160e01b8152306004820152905191945061175192508a9187916001600160a01b038416916370a0823191602480820192602092909190829003018186803b15801561172057600080fd5b505afa158015611734573d6000803e3d6000fd5b505050506040513d602081101561174a57600080fd5b5051613b9e565b7f00000000000000000000000000000000000000000000000000000000000000006001600160a01b0316632e1a7d4d836040518263ffffffff1660e01b815260040180828152602001915050600060405180830381600087803b1580156117b757600080fd5b505af11580156117cb573d6000803e3d6000fd5b505050506113bc848361373b565b6060814281101561181f576040805162461bcd60e51b815260206004820152601760248201526000805160206144a4833981519152604482015290519081900360640190fd5b6001600160a01b037f0000000000000000000000000000000000000000000000000000000000000000168686600019810181811061185957fe5b905060200201356001600160a01b03166001600160a01b0316146118b2576040805162461bcd60e51b815260206004820152601c60248201526000805160206143cc833981519152604482015290519081900360640190fd5b6119107f00000000000000000000000000000000000000000000000000000000000000008988888080602002602001604051908101604052809392919081815260200183836020028082843760009201919091525061382e92505050565b9150868260018451038151811061192357fe5b602002602001015110156115535760405162461bcd60e51b815260040180806020018281038252602a815260200180614514602a913960400191505060405180910390fd5b80428110156119ac576040805162461bcd60e51b815260206004820152601760248201526000805160206144a4833981519152604482015290519081900360640190fd5b6119bc85856000818110610ec357fe5b6000858560001981018181106119ce57fe5b905060200201356001600160a01b03166001600160a01b03166370a08231856040518263ffffffff1660e01b815260040180826001600160a01b03166001600160a01b0316815260200191505060206040518083038186803b158015611a3357600080fd5b505afa158015611a47573d6000803e3d6000fd5b505050506040513d6020811015611a5d57600080fd5b50516040805160208881028281018201909352888252929350611a9f92909189918991829185019084908082843760009201919091525088925061341e915050565b86611b518288886000198101818110611ab457fe5b905060200201356001600160a01b03166001600160a01b03166370a08231886040518263ffffffff1660e01b815260040180826001600160a01b03166001600160a01b0316815260200191505060206040518083038186803b158015611b1957600080fd5b505afa158015611b2d573d6000803e3d6000fd5b505050506040513d6020811015611b4357600080fd5b50519063ffffffff613d0816565b10156110da5760405162461bcd60e51b815260040180806020018281038252602a815260200180614514602a913960400191505060405180910390fd5b7f000000000000000000000000000000000000000000000000000000000000000081565b600080611c007f00000000000000000000000000000000000000000000000000000000000000008d7f0000000000000000000000000000000000000000000000000000000000000000613201565b9050600086611c0f578b611c13565b6000195b6040805163d505accf60e01b815233600482015230602482015260448101839052606481018b905260ff8916608482015260a4810188905260c4810187905290519192506001600160a01b0384169163d505accf9160e48082019260009290919082900301818387803b158015611c8957600080fd5b505af1158015611c9d573d6000803e3d6000fd5b50505050611caf8d8d8d8d8d8d611658565b9d9c50505050505050505050505050565b60008060008342811015611d09576040805162461bcd60e51b815260206004820152601760248201526000805160206144a4833981519152604482015290519081900360640190fd5b611d378a7f00000000000000000000000000000000000000000000000000000000000000008b348c8c613d58565b90945092506000611d897f00000000000000000000000000000000000000000000000000000000000000008c7f0000000000000000000000000000000000000000000000000000000000000000613201565b9050611d978b3383886132c1565b7f00000000000000000000000000000000000000000000000000000000000000006001600160a01b031663d0e30db0856040518263ffffffff1660e01b81526004016000604051808303818588803b158015611df257600080fd5b505af1158015611e06573d6000803e3d6000fd5b50505050507f00000000000000000000000000000000000000000000000000000000000000006001600160a01b031663a9059cbb82866040518363ffffffff1660e01b815260040180836001600160a01b03166001600160a01b0316815260200182815260200192505050602060405180830381600087803b158015611e8b57600080fd5b505af1158015611e9f573d6000803e3d6000fd5b505050506040513d6020811015611eb557600080fd5b5051611ebd57fe5b806001600160a01b0316636a627842886040518263ffffffff1660e01b815260040180826001600160a01b03166001600160a01b03168152602001915050602060405180830381600087803b158015611f1557600080fd5b505af1158015611f29573d6000803e3d6000fd5b505050506040513d6020811015611f3f57600080fd5b5051925034841015611f5757611f573385340361373b565b505096509650969350505050565b60608142811015611fab576040805162461bcd60e51b815260206004820152601760248201526000805160206144a4833981519152604482015290519081900360640190fd5b7f00000000000000000000000000000000000000000000000000000000000000006001600160a01b031686866000818110611fe257fe5b905060200201356001600160a01b03166001600160a01b03161461203b576040805162461bcd60e51b815260206004820152601c60248201526000805160206143cc833981519152604482015290519081900360640190fd5b6120997f0000000000000000000000000000000000000000000000000000000000000000888888808060200260200160405190810160405280939291908181526020018383602002808284376000920191909152506130b492505050565b915034826000815181106120a957fe5b602002602001015111156120ee5760405162461bcd60e51b815260040180806020018281038252602681526020018061447e6026913960400191505060405180910390fd5b7f00000000000000000000000000000000000000000000000000000000000000006001600160a01b031663d0e30db08360008151811061212a57fe5b60200260200101516040518263ffffffff1660e01b81526004016000604051808303818588803b15801561215d57600080fd5b505af1158015612171573d6000803e3d6000fd5b50505050507f00000000000000000000000000000000000000000000000000000000000000006001600160a01b031663a9059cbb6121d67f000000000000000000000000000000000000000000000000000000000000000089896000818110610f0557fe5b846000815181106121e357fe5b60200260200101516040518363ffffffff1660e01b815260040180836001600160a01b03166001600160a01b0316815260200182815260200192505050602060405180830381600087803b15801561223a57600080fd5b505af115801561224e573d6000803e3d6000fd5b505050506040513d602081101561226457600080fd5b505161226c57fe5b6122ab82878780806020026020016040519081016040528093929190818152602001838360200280828437600092019190915250899250613965915050565b816000815181106122b857fe5b60200260200101513411156122e7576122e733836000815181106122d857fe5b6020026020010151340361373b565b5095945050505050565b6000610ca4848484613fcc565b60608142811015612344576040805162461bcd60e51b815260206004820152601760248201526000805160206144a4833981519152604482015290519081900360640190fd5b6123a27f0000000000000000000000000000000000000000000000000000000000000000898888808060200260200160405190810160405280939291908181526020018383602002808284376000920191909152506130b492505050565b915086826000815181106123b257fe5b602002602001015111156112f45760405162461bcd60e51b815260040180806020018281038252602681526020018061447e6026913960400191505060405180910390fd5b804281101561243b576040805162461bcd60e51b815260206004820152601760248201526000805160206144a4833981519152604482015290519081900360640190fd5b7f00000000000000000000000000000000000000000000000000000000000000006001600160a01b03168585600081811061247257fe5b905060200201356001600160a01b03166001600160a01b0316146124cb576040805162461bcd60e51b815260206004820152601c60248201526000805160206143cc833981519152604482015290519081900360640190fd5b60003490507f00000000000000000000000000000000000000000000000000000000000000006001600160a01b031663d0e30db0826040518263ffffffff1660e01b81526004016000604051808303818588803b15801561252b57600080fd5b505af115801561253f573d6000803e3d6000fd5b50505050507f00000000000000000000000000000000000000000000000000000000000000006001600160a01b031663a9059cbb6125a47f000000000000000000000000000000000000000000000000000000000000000089896000818110610f0557fe5b836040518363ffffffff1660e01b815260040180836001600160a01b03166001600160a01b0316815260200182815260200192505050602060405180830381600087803b1580156125f457600080fd5b505af1158015612608573d6000803e3d6000fd5b505050506040513d602081101561261e57600080fd5b505161262657fe5b60008686600019810181811061263857fe5b905060200201356001600160a01b03166001600160a01b03166370a08231866040518263ffffffff1660e01b815260040180826001600160a01b03166001600160a01b0316815260200191505060206040518083038186803b15801561269d57600080fd5b505afa1580156126b1573d6000803e3d6000fd5b505050506040513d60208110156126c757600080fd5b505160408051602089810282810182019093528982529293506127099290918a918a91829185019084908082843760009201919091525089925061341e915050565b87611b51828989600019810181811061271e57fe5b905060200201356001600160a01b03166001600160a01b03166370a08231896040518263ffffffff1660e01b815260040180826001600160a01b03166001600160a01b0316815260200191505060206040518083038186803b158015611b1957600080fd5b6000610ca48484846140bc565b60008082428110156127d7576040805162461bcd60e51b815260206004820152601760248201526000805160206144a4833981519152604482015290519081900360640190fd5b612806897f00000000000000000000000000000000000000000000000000000000000000008a8a8a308a6128aa565b9093509150612816898685613b9e565b7f00000000000000000000000000000000000000000000000000000000000000006001600160a01b0316632e1a7d4d836040518263ffffffff1660e01b815260040180828152602001915050600060405180830381600087803b15801561287c57600080fd5b505af1158015612890573d6000803e3d6000fd5b5050505061289e858361373b565b50965096945050505050565b60008082428110156128f1576040805162461bcd60e51b815260206004820152601760248201526000805160206144a4833981519152604482015290519081900360640190fd5b600061291e7f00000000000000000000000000000000000000000000000000000000000000008c8c613201565b604080516323b872dd60e01b81523360048201526001600160a01b03831660248201819052604482018d9052915192935090916323b872dd916064808201926020929091908290030181600087803b15801561297957600080fd5b505af115801561298d573d6000803e3d6000fd5b505050506040513d60208110156129a357600080fd5b50506040805163226bf2d160e21b81526001600160a01b03888116600483015282516000938493928616926389afcb44926024808301939282900301818787803b1580156129f057600080fd5b505af1158015612a04573d6000803e3d6000fd5b505050506040513d6040811015612a1a57600080fd5b50805160209091015190925090506000612a348e8e614168565b509050806001600160a01b03168e6001600160a01b031614612a57578183612a5a565b82825b90975095508a871015612a9e5760405162461bcd60e51b81526004018080602001828103825260258152602001806144ef6025913960400191505060405180910390fd5b89861015612add5760405162461bcd60e51b81526004018080602001828103825260258152602001806144136025913960400191505060405180910390fd5b505050505097509795505050505050565b7f000000000000000000000000000000000000000000000000000000000000000081565b6060610cd97f0000000000000000000000000000000000000000000000000000000000000000848461382e565b60608142811015612b85576040805162461bcd60e51b815260206004820152601760248201526000805160206144a4833981519152604482015290519081900360640190fd5b7f00000000000000000000000000000000000000000000000000000000000000006001600160a01b031686866000818110612bbc57fe5b905060200201356001600160a01b03166001600160a01b031614612c15576040805162461bcd60e51b815260206004820152601c60248201526000805160206143cc833981519152604482015290519081900360640190fd5b612c737f00000000000000000000000000000000000000000000000000000000000000003488888080602002602001604051908101604052809392919081815260200183836020028082843760009201919091525061382e92505050565b91508682600184510381518110612c8657fe5b60200260200101511015612ccb5760405162461bcd60e51b815260040180806020018281038252602a815260200180614514602a913960400191505060405180910390fd5b7f00000000000000000000000000000000000000000000000000000000000000006001600160a01b031663d0e30db083600081518110612d0757fe5b60200260200101516040518263ffffffff1660e01b81526004016000604051808303818588803b158015612d3a57600080fd5b505af1158015612d4e573d6000803e3d6000fd5b50505050507f00000000000000000000000000000000000000000000000000000000000000006001600160a01b031663a9059cbb612db37f000000000000000000000000000000000000000000000000000000000000000089896000818110610f0557fe5b84600081518110612dc057fe5b60200260200101516040518363ffffffff1660e01b815260040180836001600160a01b03166001600160a01b0316815260200182815260200192505050602060405180830381600087803b158015612e1757600080fd5b505af1158015612e2b573d6000803e3d6000fd5b505050506040513d6020811015612e4157600080fd5b5051612e4957fe5b6122e782878780806020026020016040519081016040528093929190818152602001838360200280828437600092019190915250899250613965915050565b60008060008342811015612ed1576040805162461bcd60e51b815260206004820152601760248201526000805160206144a4833981519152604482015290519081900360640190fd5b612edf8c8c8c8c8c8c613d58565b90945092506000612f117f00000000000000000000000000000000000000000000000000000000000000008e8e613201565b9050612f1f8d3383886132c1565b612f2b8c3383876132c1565b806001600160a01b0316636a627842886040518263ffffffff1660e01b815260040180826001600160a01b03166001600160a01b03168152602001915050602060405180830381600087803b158015612f8357600080fd5b505af1158015612f97573d6000803e3d6000fd5b505050506040513d6020811015612fad57600080fd5b5051949d939c50939a509198505050505050505050565b60008084116130045760405162461bcd60e51b815260040180806020018281038252602a81526020018061453e602a913960400191505060405180910390fd5b6000831180156130145750600082115b61304f5760405162461bcd60e51b81526004018080602001828103825260278152602001806143ec6027913960400191505060405180910390fd5b6000613063856103e663ffffffff61424616565b90506000613077828563ffffffff61424616565b9050600061309d83613091886103e863ffffffff61424616565b9063ffffffff6142a916565b90508082816130a857fe5b04979650505050505050565b606060028251101561310d576040805162461bcd60e51b815260206004820152601d60248201527f4d616b69737761704c6962726172793a20494e56414c49445f50415448000000604482015290519081900360640190fd5b815167ffffffffffffffff8111801561312557600080fd5b5060405190808252806020026020018201604052801561314f578160200160208202803683370190505b509050828160018351038151811061316357fe5b60209081029190910101528151600019015b80156131f9576000806131b28786600186038151811061319157fe5b60200260200101518786815181106131a557fe5b60200260200101516142f8565b915091506131d48484815181106131c557fe5b60200260200101518383613fcc565b8460018503815181106131e357fe5b6020908102919091010152505060001901613175565b509392505050565b60008060006132108585614168565b604080516bffffffffffffffffffffffff19606094851b811660208084019190915293851b81166034830152825160288184030181526048830184528051908501206001600160f81b031960688401529a90941b9093166069840152607d8301989098527f03994a19f6b821aa8c1f78416b63d384b3534e859b72f130b8fc1f38d1d221fa609d808401919091528851808403909101815260bd909201909752805196019590952095945050505050565b604080516001600160a01b0385811660248301528481166044830152606480830185905283518084039091018152608490920183526020820180516001600160e01b03166323b872dd60e01b17815292518251600094606094938a169392918291908083835b602083106133465780518252601f199092019160209182019101613327565b6001836020036101000a0380198251168184511680821785525050505050509050019150506000604051808303816000865af19150503d80600081146133a8576040519150601f19603f3d011682016040523d82523d6000602084013e6133ad565b606091505b50915091508180156133db5750805115806133db57508080602001905160208110156133d857600080fd5b50515b6134165760405162461bcd60e51b81526004018080602001828103825260248152602001806145686024913960400191505060405180910390fd5b505050505050565b60005b60018351038110156137365760008084838151811061343c57fe5b602002602001015185846001018151811061345357fe5b602002602001015191509150600061346b8383614168565b509050600061349b7f00000000000000000000000000000000000000000000000000000000000000008585613201565b9050600080600080846001600160a01b0316630902f1ac6040518163ffffffff1660e01b815260040160606040518083038186803b1580156134dc57600080fd5b505afa1580156134f0573d6000803e3d6000fd5b505050506040513d606081101561350657600080fd5b5080516020909101516001600160701b0391821693501690506000806001600160a01b038a81169089161461353c57828461353f565b83835b9150915061359d828b6001600160a01b03166370a082318a6040518263ffffffff1660e01b815260040180826001600160a01b03166001600160a01b0316815260200191505060206040518083038186803b158015611b1957600080fd5b95506135aa868383612fc4565b945050505050600080856001600160a01b0316886001600160a01b0316146135d4578260006135d8565b6000835b91509150600060028c51038a106135ef578a613630565b6136307f0000000000000000000000000000000000000000000000000000000000000000898e8d6002018151811061362357fe5b6020026020010151613201565b604080516000808252602082019283905263022c0d9f60e01b835260248201878152604483018790526001600160a01b038086166064850152608060848501908152845160a48601819052969750908c169563022c0d9f958a958a958a9591949193919260c486019290918190849084905b838110156136ba5781810151838201526020016136a2565b50505050905090810190601f1680156136e75780820380516001836020036101000a031916815260200191505b5095505050505050600060405180830381600087803b15801561370957600080fd5b505af115801561371d573d6000803e3d6000fd5b50506001909b019a506134219950505050505050505050565b505050565b604080516000808252602082019092526001600160a01b0384169083906040518082805190602001908083835b602083106137875780518252601f199092019160209182019101613768565b6001836020036101000a03801982511681845116808217855250505050505090500191505060006040518083038185875af1925050503d80600081146137e9576040519150601f19603f3d011682016040523d82523d6000602084013e6137ee565b606091505b50509050806137365760405162461bcd60e51b81526004018080602001828103825260228152602001806144386022913960400191505060405180910390fd5b6060600282511015613887576040805162461bcd60e51b815260206004820152601d60248201527f4d616b69737761704c6962726172793a20494e56414c49445f50415448000000604482015290519081900360640190fd5b815167ffffffffffffffff8111801561389f57600080fd5b506040519080825280602002602001820160405280156138c9578160200160208202803683370190505b50905082816000815181106138da57fe5b60200260200101818152505060005b60018351038110156131f95760008061391f8786858151811061390857fe5b60200260200101518786600101815181106131a557fe5b9150915061394184848151811061393257fe5b60200260200101518383612fc4565b84846001018151811061395057fe5b602090810291909101015250506001016138e9565b60005b6001835103811015613b985760008084838151811061398357fe5b602002602001015185846001018151811061399a57fe5b60200260200101519150915060006139b28383614168565b50905060008785600101815181106139c657fe5b60200260200101519050600080836001600160a01b0316866001600160a01b0316146139f4578260006139f8565b6000835b91509150600060028a51038810613a0f5788613a43565b613a437f0000000000000000000000000000000000000000000000000000000000000000878c8b6002018151811061362357fe5b9050613a707f00000000000000000000000000000000000000000000000000000000000000008888613201565b6001600160a01b031663022c0d9f84848460006040519080825280601f01601f191660200182016040528015613aad576020820181803683370190505b506040518563ffffffff1660e01b815260040180858152602001848152602001836001600160a01b03166001600160a01b0316815260200180602001828103825283818151815260200191508051906020019080838360005b83811015613b1e578181015183820152602001613b06565b50505050905090810190601f168015613b4b5780820380516001836020036101000a031916815260200191505b5095505050505050600060405180830381600087803b158015613b6d57600080fd5b505af1158015613b81573d6000803e3d6000fd5b505060019099019850613968975050505050505050565b50505050565b604080516001600160a01b038481166024830152604480830185905283518084039091018152606490920183526020820180516001600160e01b031663a9059cbb60e01b178152925182516000946060949389169392918291908083835b60208310613c1b5780518252601f199092019160209182019101613bfc565b6001836020036101000a0380198251168184511680821785525050505050509050019150506000604051808303816000865af19150503d8060008114613c7d576040519150601f19603f3d011682016040523d82523d6000602084013e613c82565b606091505b5091509150818015613cb0575080511580613cb05750808060200190516020811015613cad57600080fd5b50515b613d01576040805162461bcd60e51b815260206004820152601f60248201527f5472616e7366657248656c7065723a205452414e534645525f4641494c454400604482015290519081900360640190fd5b5050505050565b80820382811115610cdc576040805162461bcd60e51b815260206004820152601560248201527464732d6d6174682d7375622d756e646572666c6f7760581b604482015290519081900360640190fd5b6040805163e6a4390560e01b81526001600160a01b03888116600483015287811660248301529151600092839283927f00000000000000000000000000000000000000000000000000000000000000009092169163e6a4390591604480820192602092909190829003018186803b158015613dd257600080fd5b505afa158015613de6573d6000803e3d6000fd5b505050506040513d6020811015613dfc57600080fd5b50516001600160a01b03161415613eaf57604080516364e329cb60e11b81526001600160a01b038a81166004830152898116602483015291517f00000000000000000000000000000000000000000000000000000000000000009092169163c9c65396916044808201926020929091908290030181600087803b158015613e8257600080fd5b505af1158015613e96573d6000803e3d6000fd5b505050506040513d6020811015613eac57600080fd5b50505b600080613edd7f00000000000000000000000000000000000000000000000000000000000000008b8b6142f8565b91509150816000148015613eef575080155b15613eff57879350869250613fbf565b6000613f0c8984846140bc565b9050878111613f5f5785811015613f545760405162461bcd60e51b81526004018080602001828103825260258152602001806144136025913960400191505060405180910390fd5b889450925082613fbd565b6000613f6c8984866140bc565b905089811115613f7857fe5b87811015613fb75760405162461bcd60e51b81526004018080602001828103825260258152602001806144ef6025913960400191505060405180910390fd5b94508793505b505b5050965096945050505050565b600080841161400c5760405162461bcd60e51b815260040180806020018281038252602b8152602001806144c4602b913960400191505060405180910390fd5b60008311801561401c5750600082115b6140575760405162461bcd60e51b81526004018080602001828103825260278152602001806143ec6027913960400191505060405180910390fd5b600061407b6103e861406f868863ffffffff61424616565b9063ffffffff61424616565b905060006140956103e661406f868963ffffffff613d0816565b90506140b260018284816140a557fe5b049063ffffffff6142a916565b9695505050505050565b60008084116140fc5760405162461bcd60e51b815260040180806020018281038252602481526020018061458c6024913960400191505060405180910390fd5b60008311801561410c5750600082115b6141475760405162461bcd60e51b81526004018080602001828103825260278152602001806143ec6027913960400191505060405180910390fd5b82614158858463ffffffff61424616565b8161415f57fe5b04949350505050565b600080826001600160a01b0316846001600160a01b031614156141bc5760405162461bcd60e51b815260040180806020018281038252602481526020018061445a6024913960400191505060405180910390fd5b826001600160a01b0316846001600160a01b0316106141dc5782846141df565b83835b90925090506001600160a01b03821661423f576040805162461bcd60e51b815260206004820152601d60248201527f4d616b69737761704c6962726172793a205a45524f5f41444452455353000000604482015290519081900360640190fd5b9250929050565b60008115806142615750508082028282828161425e57fe5b04145b610cdc576040805162461bcd60e51b815260206004820152601460248201527364732d6d6174682d6d756c2d6f766572666c6f7760601b604482015290519081900360640190fd5b80820182811015610cdc576040805162461bcd60e51b815260206004820152601460248201527364732d6d6174682d6164642d6f766572666c6f7760601b604482015290519081900360640190fd5b60008060006143078585614168565b509050614315868686613201565b50600080614324888888613201565b6001600160a01b0316630902f1ac6040518163ffffffff1660e01b815260040160606040518083038186803b15801561435c57600080fd5b505afa158015614370573d6000803e3d6000fd5b505050506040513d606081101561438657600080fd5b5080516020909101516001600160701b0391821693501690506001600160a01b03878116908416146143b95780826143bc565b81815b9099909850965050505050505056fe4d616b6973776170526f757465723a20494e56414c49445f50415448000000004d616b69737761704c6962726172793a20494e53554646494349454e545f4c49515549444954594d616b6973776170526f757465723a20494e53554646494349454e545f425f414d4f554e545472616e7366657248656c7065723a2048545f5452414e534645525f4641494c45444d616b69737761704c6962726172793a204944454e544943414c5f4144445245535345534d616b6973776170526f757465723a204558434553534956455f494e5055545f414d4f554e544d616b6973776170526f757465723a20455850495245440000000000000000004d616b69737761704c6962726172793a20494e53554646494349454e545f4f55545055545f414d4f554e544d616b6973776170526f757465723a20494e53554646494349454e545f415f414d4f554e544d616b6973776170526f757465723a20494e53554646494349454e545f4f55545055545f414d4f554e544d616b69737761704c6962726172793a20494e53554646494349454e545f494e5055545f414d4f554e545472616e7366657248656c7065723a205452414e534645525f46524f4d5f4641494c45444d616b69737761704c6962726172793a20494e53554646494349454e545f414d4f554e54a26469706673582212206097675cd832bb70f988b34273a5ab00ce83c9226e497fdf5fb0b2a40414dae264736f6c63430006060033",
    "sourcePath": "/Users/Uni/Documents/GitHub/makiswap/makiswap-protocol/contracts/exchange/MakiswapRouter.sol",
    "compiler": {
        "name": "solc",
        "version": "0.6.6+commit.6c089d02"
    },
    "functionHashes": {
        "WHT()": "5cb48592",
        "addLiquidity(address,address,uint256,uint256,uint256,uint256,address,uint256)": "e8e33700",
        "addLiquidityHT(address,uint256,uint256,uint256,address,uint256)": "79836890",
        "factory()": "c45a0155",
        "getAmountIn(uint256,uint256,uint256)": "85f8c259",
        "getAmountOut(uint256,uint256,uint256)": "054d50d4",
        "getAmountsIn(uint256,address[])": "1f00ca74",
        "getAmountsOut(uint256,address[])": "d06ca61f",
        "quote(uint256,uint256,uint256)": "ad615dec",
        "removeLiquidity(address,address,uint256,uint256,uint256,address,uint256)": "baa2abde",
        "removeLiquidityHT(address,uint256,uint256,uint256,address,uint256)": "b08700c6",
        "removeLiquidityHTSupportingFeeOnTransferTokens(address,uint256,uint256,uint256,address,uint256)": "4883f12a",
        "removeLiquidityHTWithPermit(address,uint256,uint256,uint256,address,uint256,bool,uint8,bytes32,bytes32)": "29dd2327",
        "removeLiquidityHTWithPermitSupportingFeeOnTransferTokens(address,uint256,uint256,uint256,address,uint256,bool,uint8,bytes32,bytes32)": "613fc249",
        "removeLiquidityWithPermit(address,address,uint256,uint256,uint256,address,uint256,bool,uint8,bytes32,bytes32)": "2195995c",
        "swapExactHTForTokens(uint256,address[],address,uint256)": "de6b8256",
        "swapExactHTForTokensSupportingFeeOnTransferTokens(uint256,address[],address,uint256)": "a223880b",
        "swapExactTokensForHT(uint256,uint256,address[],address,uint256)": "4b361208",
        "swapExactTokensForHTSupportingFeeOnTransferTokens(uint256,uint256,address[],address,uint256)": "25ae1cda",
        "swapExactTokensForTokens(uint256,uint256,address[],address,uint256)": "38ed1739",
        "swapExactTokensForTokensSupportingFeeOnTransferTokens(uint256,uint256,address[],address,uint256)": "5c11d795",
        "swapHTForExactTokens(uint256,address[],address,uint256)": "7edecb45",
        "swapTokensForExactHT(uint256,uint256,address[],address,uint256)": "46eb6051",
        "swapTokensForExactTokens(uint256,uint256,address[],address,uint256)": "8803dbee"
    },
    "gasEstimates": {
        "creation": {
            "codeDepositCost": "3578600",
            "executionCost": "infinite",
            "totalCost": "infinite"
        },
        "external": {
            "WHT()": "infinite",
            "addLiquidity(address,address,uint256,uint256,uint256,uint256,address,uint256)": "infinite",
            "addLiquidityHT(address,uint256,uint256,uint256,address,uint256)": "infinite",
            "factory()": "infinite",
            "getAmountIn(uint256,uint256,uint256)": "infinite",
            "getAmountOut(uint256,uint256,uint256)": "infinite",
            "getAmountsIn(uint256,address[])": "infinite",
            "getAmountsOut(uint256,address[])": "infinite",
            "quote(uint256,uint256,uint256)": "infinite",
            "removeLiquidity(address,address,uint256,uint256,uint256,address,uint256)": "infinite",
            "removeLiquidityHT(address,uint256,uint256,uint256,address,uint256)": "infinite",
            "removeLiquidityHTSupportingFeeOnTransferTokens(address,uint256,uint256,uint256,address,uint256)": "infinite",
            "removeLiquidityHTWithPermit(address,uint256,uint256,uint256,address,uint256,bool,uint8,bytes32,bytes32)": "infinite",
            "removeLiquidityHTWithPermitSupportingFeeOnTransferTokens(address,uint256,uint256,uint256,address,uint256,bool,uint8,bytes32,bytes32)": "infinite",
            "removeLiquidityWithPermit(address,address,uint256,uint256,uint256,address,uint256,bool,uint8,bytes32,bytes32)": "infinite",
            "swapExactHTForTokens(uint256,address[],address,uint256)": "infinite",
            "swapExactHTForTokensSupportingFeeOnTransferTokens(uint256,address[],address,uint256)": "infinite",
            "swapExactTokensForHT(uint256,uint256,address[],address,uint256)": "infinite",
            "swapExactTokensForHTSupportingFeeOnTransferTokens(uint256,uint256,address[],address,uint256)": "infinite",
            "swapExactTokensForTokens(uint256,uint256,address[],address,uint256)": "infinite",
            "swapExactTokensForTokensSupportingFeeOnTransferTokens(uint256,uint256,address[],address,uint256)": "infinite",
            "swapHTForExactTokens(uint256,address[],address,uint256)": "infinite",
            "swapTokensForExactHT(uint256,uint256,address[],address,uint256)": "infinite",
            "swapTokensForExactTokens(uint256,uint256,address[],address,uint256)": "infinite"
        },
        "internal": {
            "_addLiquidity(address,address,uint256,uint256,uint256,uint256)": "infinite",
            "_swap(uint256[] memory,address[] memory,address)": "infinite",
            "_swapSupportingFeeOnTransferTokens(address[] memory,address)": "infinite"
        }
    }
}