{
    "contractName": "MakiToken",
    "abi": [
        {
            "inputs": [],
            "stateMutability": "nonpayable",
            "type": "constructor"
        },
        {
            "anonymous": false,
            "inputs": [
                {
                    "indexed": true,
                    "internalType": "address",
                    "name": "owner",
                    "type": "address"
                },
                {
                    "indexed": true,
                    "internalType": "address",
                    "name": "spender",
                    "type": "address"
                },
                {
                    "indexed": false,
                    "internalType": "uint256",
                    "name": "amount",
                    "type": "uint256"
                }
            ],
            "name": "Approval",
            "type": "event"
        },
        {
            "anonymous": false,
            "inputs": [
                {
                    "indexed": true,
                    "internalType": "address",
                    "name": "burner",
                    "type": "address"
                },
                {
                    "indexed": false,
                    "internalType": "uint256",
                    "name": "amount",
                    "type": "uint256"
                }
            ],
            "name": "Burn",
            "type": "event"
        },
        {
            "anonymous": false,
            "inputs": [
                {
                    "indexed": true,
                    "internalType": "address",
                    "name": "delegator",
                    "type": "address"
                },
                {
                    "indexed": true,
                    "internalType": "address",
                    "name": "fromDelegate",
                    "type": "address"
                },
                {
                    "indexed": true,
                    "internalType": "address",
                    "name": "toDelegate",
                    "type": "address"
                }
            ],
            "name": "DelegateChanged",
            "type": "event"
        },
        {
            "anonymous": false,
            "inputs": [
                {
                    "indexed": true,
                    "internalType": "address",
                    "name": "delegate",
                    "type": "address"
                },
                {
                    "indexed": false,
                    "internalType": "uint256",
                    "name": "previousBalance",
                    "type": "uint256"
                },
                {
                    "indexed": false,
                    "internalType": "uint256",
                    "name": "newBalance",
                    "type": "uint256"
                }
            ],
            "name": "DelegateVotesChanged",
            "type": "event"
        },
        {
            "anonymous": false,
            "inputs": [
                {
                    "indexed": false,
                    "internalType": "address",
                    "name": "minter",
                    "type": "address"
                },
                {
                    "indexed": false,
                    "internalType": "address",
                    "name": "newMinter",
                    "type": "address"
                }
            ],
            "name": "MinterChanged",
            "type": "event"
        },
        {
            "anonymous": false,
            "inputs": [
                {
                    "indexed": true,
                    "internalType": "address",
                    "name": "from",
                    "type": "address"
                },
                {
                    "indexed": true,
                    "internalType": "address",
                    "name": "to",
                    "type": "address"
                },
                {
                    "indexed": false,
                    "internalType": "uint256",
                    "name": "amount",
                    "type": "uint256"
                }
            ],
            "name": "Transfer",
            "type": "event"
        },
        {
            "inputs": [],
            "name": "DELEGATION_TYPEHASH",
            "outputs": [
                {
                    "internalType": "bytes32",
                    "name": "",
                    "type": "bytes32"
                }
            ],
            "stateMutability": "view",
            "type": "function"
        },
        {
            "inputs": [],
            "name": "DOMAIN_TYPEHASH",
            "outputs": [
                {
                    "internalType": "bytes32",
                    "name": "",
                    "type": "bytes32"
                }
            ],
            "stateMutability": "view",
            "type": "function"
        },
        {
            "inputs": [],
            "name": "PERMIT_TYPEHASH",
            "outputs": [
                {
                    "internalType": "bytes32",
                    "name": "",
                    "type": "bytes32"
                }
            ],
            "stateMutability": "view",
            "type": "function"
        },
        {
            "inputs": [
                {
                    "internalType": "address",
                    "name": "account",
                    "type": "address"
                },
                {
                    "internalType": "address",
                    "name": "spender",
                    "type": "address"
                }
            ],
            "name": "allowance",
            "outputs": [
                {
                    "internalType": "uint256",
                    "name": "",
                    "type": "uint256"
                }
            ],
            "stateMutability": "view",
            "type": "function"
        },
        {
            "inputs": [
                {
                    "internalType": "address",
                    "name": "spender",
                    "type": "address"
                },
                {
                    "internalType": "uint256",
                    "name": "rawAmount",
                    "type": "uint256"
                }
            ],
            "name": "approve",
            "outputs": [
                {
                    "internalType": "bool",
                    "name": "",
                    "type": "bool"
                }
            ],
            "stateMutability": "nonpayable",
            "type": "function"
        },
        {
            "inputs": [
                {
                    "internalType": "address",
                    "name": "account",
                    "type": "address"
                }
            ],
            "name": "balanceOf",
            "outputs": [
                {
                    "internalType": "uint256",
                    "name": "",
                    "type": "uint256"
                }
            ],
            "stateMutability": "view",
            "type": "function"
        },
        {
            "inputs": [
                {
                    "internalType": "uint256",
                    "name": "rawAmount",
                    "type": "uint256"
                }
            ],
            "name": "burn",
            "outputs": [],
            "stateMutability": "nonpayable",
            "type": "function"
        },
        {
            "inputs": [
                {
                    "internalType": "address",
                    "name": "",
                    "type": "address"
                },
                {
                    "internalType": "uint32",
                    "name": "",
                    "type": "uint32"
                }
            ],
            "name": "checkpoints",
            "outputs": [
                {
                    "internalType": "uint32",
                    "name": "fromBlock",
                    "type": "uint32"
                },
                {
                    "internalType": "uint96",
                    "name": "votes",
                    "type": "uint96"
                }
            ],
            "stateMutability": "view",
            "type": "function"
        },
        {
            "inputs": [],
            "name": "decimals",
            "outputs": [
                {
                    "internalType": "uint8",
                    "name": "",
                    "type": "uint8"
                }
            ],
            "stateMutability": "view",
            "type": "function"
        },
        {
            "inputs": [
                {
                    "internalType": "address",
                    "name": "delegatee",
                    "type": "address"
                }
            ],
            "name": "delegate",
            "outputs": [],
            "stateMutability": "nonpayable",
            "type": "function"
        },
        {
            "inputs": [
                {
                    "internalType": "address",
                    "name": "delegatee",
                    "type": "address"
                },
                {
                    "internalType": "uint256",
                    "name": "nonce",
                    "type": "uint256"
                },
                {
                    "internalType": "uint256",
                    "name": "expiry",
                    "type": "uint256"
                },
                {
                    "internalType": "uint8",
                    "name": "v",
                    "type": "uint8"
                },
                {
                    "internalType": "bytes32",
                    "name": "r",
                    "type": "bytes32"
                },
                {
                    "internalType": "bytes32",
                    "name": "s",
                    "type": "bytes32"
                }
            ],
            "name": "delegateBySig",
            "outputs": [],
            "stateMutability": "nonpayable",
            "type": "function"
        },
        {
            "inputs": [
                {
                    "internalType": "address",
                    "name": "",
                    "type": "address"
                }
            ],
            "name": "delegates",
            "outputs": [
                {
                    "internalType": "address",
                    "name": "",
                    "type": "address"
                }
            ],
            "stateMutability": "view",
            "type": "function"
        },
        {
            "inputs": [
                {
                    "internalType": "address",
                    "name": "account",
                    "type": "address"
                }
            ],
            "name": "getCurrentVotes",
            "outputs": [
                {
                    "internalType": "uint96",
                    "name": "",
                    "type": "uint96"
                }
            ],
            "stateMutability": "view",
            "type": "function"
        },
        {
            "inputs": [
                {
                    "internalType": "address",
                    "name": "account",
                    "type": "address"
                },
                {
                    "internalType": "uint256",
                    "name": "blockNumber",
                    "type": "uint256"
                }
            ],
            "name": "getPriorVotes",
            "outputs": [
                {
                    "internalType": "uint96",
                    "name": "",
                    "type": "uint96"
                }
            ],
            "stateMutability": "view",
            "type": "function"
        },
        {
            "inputs": [
                {
                    "internalType": "address",
                    "name": "dst",
                    "type": "address"
                },
                {
                    "internalType": "uint256",
                    "name": "rawAmount",
                    "type": "uint256"
                }
            ],
            "name": "mint",
            "outputs": [],
            "stateMutability": "nonpayable",
            "type": "function"
        },
        {
            "inputs": [],
            "name": "mintCap",
            "outputs": [
                {
                    "internalType": "uint8",
                    "name": "",
                    "type": "uint8"
                }
            ],
            "stateMutability": "view",
            "type": "function"
        },
        {
            "inputs": [],
            "name": "minter",
            "outputs": [
                {
                    "internalType": "address",
                    "name": "",
                    "type": "address"
                }
            ],
            "stateMutability": "view",
            "type": "function"
        },
        {
            "inputs": [],
            "name": "name",
            "outputs": [
                {
                    "internalType": "string",
                    "name": "",
                    "type": "string"
                }
            ],
            "stateMutability": "view",
            "type": "function"
        },
        {
            "inputs": [
                {
                    "internalType": "address",
                    "name": "",
                    "type": "address"
                }
            ],
            "name": "nonces",
            "outputs": [
                {
                    "internalType": "uint256",
                    "name": "",
                    "type": "uint256"
                }
            ],
            "stateMutability": "view",
            "type": "function"
        },
        {
            "inputs": [
                {
                    "internalType": "address",
                    "name": "",
                    "type": "address"
                }
            ],
            "name": "numCheckpoints",
            "outputs": [
                {
                    "internalType": "uint32",
                    "name": "",
                    "type": "uint32"
                }
            ],
            "stateMutability": "view",
            "type": "function"
        },
        {
            "inputs": [
                {
                    "internalType": "address",
                    "name": "owner",
                    "type": "address"
                },
                {
                    "internalType": "address",
                    "name": "spender",
                    "type": "address"
                },
                {
                    "internalType": "uint256",
                    "name": "rawAmount",
                    "type": "uint256"
                },
                {
                    "internalType": "uint256",
                    "name": "deadline",
                    "type": "uint256"
                },
                {
                    "internalType": "uint8",
                    "name": "v",
                    "type": "uint8"
                },
                {
                    "internalType": "bytes32",
                    "name": "r",
                    "type": "bytes32"
                },
                {
                    "internalType": "bytes32",
                    "name": "s",
                    "type": "bytes32"
                }
            ],
            "name": "permit",
            "outputs": [],
            "stateMutability": "nonpayable",
            "type": "function"
        },
        {
            "inputs": [
                {
                    "internalType": "address",
                    "name": "minter_",
                    "type": "address"
                }
            ],
            "name": "setMinter",
            "outputs": [],
            "stateMutability": "nonpayable",
            "type": "function"
        },
        {
            "inputs": [],
            "name": "symbol",
            "outputs": [
                {
                    "internalType": "string",
                    "name": "",
                    "type": "string"
                }
            ],
            "stateMutability": "view",
            "type": "function"
        },
        {
            "inputs": [],
            "name": "totalSupply",
            "outputs": [
                {
                    "internalType": "uint256",
                    "name": "",
                    "type": "uint256"
                }
            ],
            "stateMutability": "view",
            "type": "function"
        },
        {
            "inputs": [
                {
                    "internalType": "address",
                    "name": "dst",
                    "type": "address"
                },
                {
                    "internalType": "uint256",
                    "name": "rawAmount",
                    "type": "uint256"
                }
            ],
            "name": "transfer",
            "outputs": [
                {
                    "internalType": "bool",
                    "name": "",
                    "type": "bool"
                }
            ],
            "stateMutability": "nonpayable",
            "type": "function"
        },
        {
            "inputs": [
                {
                    "internalType": "address",
                    "name": "src",
                    "type": "address"
                },
                {
                    "internalType": "address",
                    "name": "dst",
                    "type": "address"
                },
                {
                    "internalType": "uint256",
                    "name": "rawAmount",
                    "type": "uint256"
                }
            ],
            "name": "transferFrom",
            "outputs": [
                {
                    "internalType": "bool",
                    "name": "",
                    "type": "bool"
                }
            ],
            "stateMutability": "nonpayable",
            "type": "function"
        }
    ],
    "bytecode": "608060405260008055600180546001600160a01b0319163317905534801561002657600080fd5b5060008054338083526003602052604080842080546001600160601b0319166001600160601b0390941693909317909255825491519092917fddf252ad1be2c89b69c2b068fc378daa952ba7f163c4a11628f55a4df523b3ef9161008a91906100f7565b60405180910390a36001546040517f3b0007eb941cf645526cbb3a4fdaecda9d28ce4843167d9263b536a1f1edc0f6916100d0916000916001600160a01b0316906100dd565b60405180910390a1610100565b6001600160a01b0392831681529116602082015260400190565b90815260200190565b61229880620001106000396000f3fe608060405234801561001057600080fd5b506004361061018e5760003560e01c806370a08231116100de578063b4b5ea5711610097578063dd62ed3e11610071578063dd62ed3e14610343578063e7a324dc14610356578063f1127ed81461035e578063fca3b5aa1461037f5761018e565b8063b4b5ea571461030a578063c3cda5201461031d578063d505accf146103305761018e565b806370a08231146102a157806376c71ca1146102b4578063782d6fe1146102bc5780637ecebe00146102dc57806395d89b41146102ef578063a9059cbb146102f75761018e565b806330adf81f1161014b57806342966c681161012557806342966c6814610248578063587cde1e1461025b5780635c19a95c1461026e5780636fcfff45146102815761018e565b806330adf81f14610216578063313ce5671461021e57806340c10f19146102335761018e565b806306fdde031461019357806307546172146101b1578063095ea7b3146101c657806318160ddd146101e657806320606b70146101fb57806323b872dd14610203575b600080fd5b61019b610392565b6040516101a89190611bce565b60405180910390f35b6101b96103b6565b6040516101a89190611af2565b6101d96101d43660046119fd565b6103c5565b6040516101a89190611b20565b6101ee610489565b6040516101a89190611b2b565b6101ee61048f565b6101d9610211366004611951565b6104b3565b6101ee6105fa565b61022661061e565b6040516101a89190611fec565b6102466102413660046119fd565b610623565b005b610246610256366004611abf565b6107f2565b6101b9610269366004611902565b6108f4565b61024661027c366004611902565b61090f565b61029461028f366004611902565b61091c565b6040516101a89190611fbc565b6101ee6102af366004611902565b610934565b610226610958565b6102cf6102ca3660046119fd565b61095d565b6040516101a89190611ffa565b6101ee6102ea366004611902565b610b6b565b61019b610b7d565b6101d96103053660046119fd565b610b9d565b6102cf610318366004611902565b610bd9565b61024661032b366004611a27565b610c4a565b61024661033e366004611991565b610e50565b6101ee61035136600461191d565b611157565b6101ee61118b565b61037161036c366004611a80565b6111af565b6040516101a8929190611fcd565b61024661038d366004611902565b6111e4565b6040518060400160405280600881526020016704d616b69537761760c41b81525081565b6001546001600160a01b031681565b6000806000198314156103e057506001600160601b03610405565b6104028360405180606001604052806025815260200161206660259139611277565b90505b3360008181526002602090815260408083206001600160a01b03891680855292529182902080546001600160601b0319166001600160601b03861617905590519091907f8c5be1e5ebec7d5bd14f71427d1e84f3dd0314c0f7b2291e5b200ac8c7c3b92590610475908590611ffa565b60405180910390a360019150505b92915050565b60005481565b7f08b0b9da00fbfd93ac6a84eb0d1f4cd9386a9601e4919e989978c6ee235c776381565b6001600160a01b03831660009081526002602090815260408083203380855290835281842054825160608101909352602580845291936001600160601b0390911692859261050b928892919061206690830139611277565b9050866001600160a01b0316836001600160a01b03161415801561053857506001600160601b0382811614155b156105e257600061056283836040518060600160405280603d8152602001612226603d91396112a6565b6001600160a01b038981166000818152600260209081526040808320948a16808452949091529081902080546001600160601b0319166001600160601b0386161790555192935090917f8c5be1e5ebec7d5bd14f71427d1e84f3dd0314c0f7b2291e5b200ac8c7c3b925906105d8908590611ffa565b60405180910390a3505b6105ed8787836112e5565b5060019695505050505050565b7f6e71edae12b1b97f4d1f60370fef10105fa2faae0126114a169c64845d6126c981565b601281565b6001546001600160a01b031633146106565760405162461bcd60e51b815260040161064d90611d0c565b60405180910390fd5b6001600160a01b03821661067c5760405162461bcd60e51b815260040161064d90611e88565b60006106a08260405180606001604052806022815260200161215260229139611277565b60005490915060649060050204816001600160601b031611156106d55760405162461bcd60e51b815260040161064d90611c67565b610704816001600160601b03166000540160405180606001604052806027815260200161219b60279139611277565b6001600160601b0390811660009081556001600160a01b03851681526003602090815260409182902054825160608101909352602580845261075694919091169285929091906120e59083013961148b565b6001600160a01b03841660008181526003602052604080822080546001600160601b0319166001600160601b03959095169490941790935591519091907fddf252ad1be2c89b69c2b068fc378daa952ba7f163c4a11628f55a4df523b3ef906107c0908590611ffa565b60405180910390a36001600160a01b038084166000908152600460205260408120546107ed9216836114c7565b505050565b60006108168260405180606001604052806022815260200161210a60229139611277565b336000908152600360205260409020549091506001600160601b03908116908216111561084257600080fd5b3360008181526003602052604080822080546001600160601b031981166001600160601b0391821687900382161790915582549085169003909155517fcc16f5dbb4873280815c1ee09dbd06736cffcc184412cf7a71a0fdb75d397ca5906108ab908490611ffa565b60405180910390a260405160009033907fddf252ad1be2c89b69c2b068fc378daa952ba7f163c4a11628f55a4df523b3ef906108e8908590611ffa565b60405180910390a35050565b6004602052600090815260409020546001600160a01b031681565b6109193382611659565b50565b60066020526000908152604090205463ffffffff1681565b6001600160a01b03166000908152600360205260409020546001600160601b031690565b600581565b600043821061097e5760405162461bcd60e51b815260040161064d90611dad565b6001600160a01b03831660009081526006602052604090205463ffffffff16806109ac576000915050610483565b6001600160a01b038416600090815260056020908152604080832063ffffffff600019860181168552925290912054168310610a28576001600160a01b03841660009081526005602090815260408083206000199490940163ffffffff1683529290522054600160201b90046001600160601b03169050610483565b6001600160a01b038416600090815260056020908152604080832083805290915290205463ffffffff16831015610a63576000915050610483565b600060001982015b8163ffffffff168163ffffffff161115610b2657600282820363ffffffff16048103610a956118c3565b506001600160a01b038716600090815260056020908152604080832063ffffffff858116855290835292819020815180830190925254928316808252600160201b9093046001600160601b03169181019190915290871415610b01576020015194506104839350505050565b805163ffffffff16871115610b1857819350610b1f565b6001820392505b5050610a6b565b506001600160a01b038516600090815260056020908152604080832063ffffffff909416835292905220546001600160601b03600160201b9091041691505092915050565b60076020526000908152604090205481565b604051806040016040528060048152602001634d414b4960e01b81525081565b600080610bc28360405180606001604052806026815260200161212c60269139611277565b9050610bcf3385836112e5565b5060019392505050565b6001600160a01b03811660009081526006602052604081205463ffffffff1680610c04576000610c43565b6001600160a01b0383166000908152600560209081526040808320600019850163ffffffff168452909152902054600160201b90046001600160601b03165b9392505050565b60408051808201909152600881526704d616b69537761760c41b60209091015260007f08b0b9da00fbfd93ac6a84eb0d1f4cd9386a9601e4919e989978c6ee235c77637f5d9d66e0de2e8de821944e30a22430a0b008e93e2ab90df5880918b6d0f9c066610cb66116e3565b30604051602001610cca9493929190611b8c565b60405160208183030381529060405280519060200120905060007fe48329057bfd03d55e49b547132e39cffd9c1820ad7b9d4c5307691425d15adf888888604051602001610d1b9493929190611b68565b60405160208183030381529060405280519060200120905060008282604051602001610d48929190611ad7565b604051602081830303815290604052805190602001209050600060018288888860405160008152602001604052604051610d859493929190611bb0565b6020604051602081039080840390855afa158015610da7573d6000803e3d6000fd5b5050604051601f1901519150506001600160a01b038116610dda5760405162461bcd60e51b815260040161064d90611ed7565b6001600160a01b03811660009081526007602052604090208054600181019091558914610e195760405162461bcd60e51b815260040161064d90611f7a565b87421115610e395760405162461bcd60e51b815260040161064d90611c21565b610e43818b611659565b505050505b505050505050565b6000600019861415610e6a57506001600160601b03610e8f565b610e8c866040518060600160405280602481526020016120c160249139611277565b90505b60408051808201909152600881526704d616b69537761760c41b60209091015260007f08b0b9da00fbfd93ac6a84eb0d1f4cd9386a9601e4919e989978c6ee235c77637f5d9d66e0de2e8de821944e30a22430a0b008e93e2ab90df5880918b6d0f9c066610efb6116e3565b30604051602001610f0f9493929190611b8c565b60408051601f1981840301815282825280516020918201206001600160a01b038d166000908152600783529283208054600181019091559094509192610f81927f6e71edae12b1b97f4d1f60370fef10105fa2faae0126114a169c64845d6126c9928e928e928e9290918e9101611b34565b60405160208183030381529060405280519060200120905060008282604051602001610fae929190611ad7565b604051602081830303815290604052805190602001209050600060018289898960405160008152602001604052604051610feb9493929190611bb0565b6020604051602081039080840390855afa15801561100d573d6000803e3d6000fd5b5050604051601f1901519150506001600160a01b0381166110405760405162461bcd60e51b815260040161064d90611df4565b8b6001600160a01b0316816001600160a01b0316146110715760405162461bcd60e51b815260040161064d90611c9e565b884211156110915760405162461bcd60e51b815260040161064d90611cd5565b84600260008e6001600160a01b03166001600160a01b0316815260200190815260200160002060008d6001600160a01b03166001600160a01b0316815260200190815260200160002060006101000a8154816001600160601b0302191690836001600160601b031602179055508a6001600160a01b03168c6001600160a01b03167f8c5be1e5ebec7d5bd14f71427d1e84f3dd0314c0f7b2291e5b200ac8c7c3b925876040516111419190611ffa565b60405180910390a3505050505050505050505050565b6001600160a01b0391821660009081526002602090815260408083209390941682529190915220546001600160601b031690565b7fe48329057bfd03d55e49b547132e39cffd9c1820ad7b9d4c5307691425d15adf81565b600560209081526000928352604080842090915290825290205463ffffffff811690600160201b90046001600160601b031682565b6001546001600160a01b0316331461120e5760405162461bcd60e51b815260040161064d90611e2b565b6001546040517f3b0007eb941cf645526cbb3a4fdaecda9d28ce4843167d9263b536a1f1edc0f69161124d916001600160a01b03909116908490611b06565b60405180910390a1600180546001600160a01b0319166001600160a01b0392909216919091179055565b600081600160601b841061129e5760405162461bcd60e51b815260040161064d9190611bce565b509192915050565b6000836001600160601b0316836001600160601b0316111582906112dd5760405162461bcd60e51b815260040161064d9190611bce565b505050900390565b6001600160a01b03831661130b5760405162461bcd60e51b815260040161064d90611d50565b6001600160a01b0382166113315760405162461bcd60e51b815260040161064d90611f1d565b6001600160a01b03831660009081526003602090815260409182902054825160608101909352603680845261137c936001600160601b03909216928592919061208b908301396112a6565b6001600160a01b03848116600090815260036020908152604080832080546001600160601b0319166001600160601b039687161790559286168252908290205482516060810190935260308084526113e494919091169285929091906121f69083013961148b565b6001600160a01b038381166000818152600360205260409081902080546001600160601b0319166001600160601b0395909516949094179093559151908516907fddf252ad1be2c89b69c2b068fc378daa952ba7f163c4a11628f55a4df523b3ef90611451908590611ffa565b60405180910390a36001600160a01b038084166000908152600460205260408082205485841683529120546107ed929182169116836114c7565b6000838301826001600160601b0380871690831610156114be5760405162461bcd60e51b815260040161064d9190611bce565b50949350505050565b816001600160a01b0316836001600160a01b0316141580156114f257506000816001600160601b0316115b156107ed576001600160a01b038316156115aa576001600160a01b03831660009081526006602052604081205463ffffffff169081611532576000611571565b6001600160a01b0385166000908152600560209081526040808320600019860163ffffffff168452909152902054600160201b90046001600160601b03165b90506000611598828560405180606001604052806028815260200161203e602891396112a6565b90506115a6868484846116e7565b5050505b6001600160a01b038216156107ed576001600160a01b03821660009081526006602052604081205463ffffffff1690816115e5576000611624565b6001600160a01b0384166000908152600560209081526040808320600019860163ffffffff168452909152902054600160201b90046001600160601b03165b9050600061164b82856040518060600160405280602781526020016121746027913961148b565b9050610e48858484846116e7565b6001600160a01b03808316600081815260046020818152604080842080546003845282862054949093528787166001600160a01b031984168117909155905191909516946001600160601b039092169391928592917f3134e8a2e6d97e929a7e54011ea5485d7d196dd5f0ba4d4ef95803e8e3fc257f9190a46116dd8284836114c7565b50505050565b4690565b600061170b436040518060600160405280603481526020016121c26034913961189c565b905060008463ffffffff1611801561175457506001600160a01b038516600090815260056020908152604080832063ffffffff6000198901811685529252909120548282169116145b156117b3576001600160a01b0385166000908152600560209081526040808320600019880163ffffffff168452909152902080546fffffffffffffffffffffffff000000001916600160201b6001600160601b03851602179055611852565b60408051808201825263ffffffff80841682526001600160601b0380861660208085019182526001600160a01b038b166000818152600583528781208c871682528352878120965187549451909516600160201b026fffffffffffffffffffffffff000000001995871663ffffffff19958616179590951694909417909555938252600690935292909220805460018801909316929091169190911790555b846001600160a01b03167fdec2bacdd2f05b59de34da9b523dff8be42e5e38e818c82fdb0bae774387a724848460405161188d92919061200e565b60405180910390a25050505050565b600081600160201b841061129e5760405162461bcd60e51b815260040161064d9190611bce565b604080518082019091526000808252602082015290565b80356001600160a01b038116811461048357600080fd5b803560ff8116811461048357600080fd5b600060208284031215611913578081fd5b610c4383836118da565b6000806040838503121561192f578081fd5b61193984846118da565b915061194884602085016118da565b90509250929050565b600080600060608486031215611965578081fd5b833561197081612028565b9250602084013561198081612028565b929592945050506040919091013590565b600080600080600080600060e0888a0312156119ab578283fd5b6119b589896118da565b96506119c48960208a016118da565b955060408801359450606088013593506119e18960808a016118f1565b925060a0880135915060c0880135905092959891949750929550565b60008060408385031215611a0f578182fd5b611a1984846118da565b946020939093013593505050565b60008060008060008060c08789031215611a3f578182fd5b611a4988886118da565b95506020870135945060408701359350611a6688606089016118f1565b92506080870135915060a087013590509295509295509295565b60008060408385031215611a92578182fd5b611a9c84846118da565b9150602083013563ffffffff81168114611ab4578182fd5b809150509250929050565b600060208284031215611ad0578081fd5b5035919050565b61190160f01b81526002810192909252602282015260420190565b6001600160a01b0391909116815260200190565b6001600160a01b0392831681529116602082015260400190565b901515815260200190565b90815260200190565b9586526001600160a01b0394851660208701529290931660408501526060840152608083019190915260a082015260c00190565b9384526001600160a01b039290921660208401526040830152606082015260800190565b938452602084019290925260408301526001600160a01b0316606082015260800190565b93845260ff9290921660208401526040830152606082015260800190565b6000602080835283518082850152825b81811015611bfa57858101830151858201604001528201611bde565b81811115611c0b5783604083870101525b50601f01601f1916929092016040019392505050565b60208082526026908201527f4d414b493a3a64656c656761746542795369673a207369676e617475726520656040820152651e1c1a5c995960d21b606082015260800190565b6020808252601d908201527f4d414b493a3a6d696e743a206578636565646564206d696e7420636170000000604082015260600190565b6020808252601a908201527f4d414b493a3a7065726d69743a20756e617574686f72697a6564000000000000604082015260600190565b6020808252601f908201527f4d414b493a3a7065726d69743a207369676e6174757265206578706972656400604082015260600190565b60208082526024908201527f4d414b493a3a6d696e743a206f6e6c7920746865206d696e7465722063616e206040820152631b5a5b9d60e21b606082015260800190565b6020808252603c908201527f4d414b493a3a5f7472616e73666572546f6b656e733a2063616e6e6f7420747260408201527f616e736665722066726f6d20746865207a65726f206164647265737300000000606082015260800190565b60208082526027908201527f4d414b493a3a6765745072696f72566f7465733a206e6f742079657420646574604082015266195c9b5a5b995960ca1b606082015260800190565b6020808252601f908201527f4d414b493a3a7065726d69743a20696e76616c6964207369676e617475726500604082015260600190565b6020808252603e908201527f4d414b493a3a7365744d696e7465723a206f6e6c7920746865206d696e74657260408201527f2063616e206368616e676520746865206d696e74657220616464726573730000606082015260800190565b6020808252602f908201527f4d414b493a3a6d696e743a2063616e6e6f74207472616e7366657220746f207460408201526e6865207a65726f206164647265737360881b606082015260800190565b60208082526026908201527f4d414b493a3a64656c656761746542795369673a20696e76616c6964207369676040820152656e617475726560d01b606082015260800190565b6020808252603a908201527f4d414b493a3a5f7472616e73666572546f6b656e733a2063616e6e6f7420747260408201527f616e7366657220746f20746865207a65726f2061646472657373000000000000606082015260800190565b60208082526022908201527f4d414b493a3a64656c656761746542795369673a20696e76616c6964206e6f6e604082015261636560f01b606082015260800190565b63ffffffff91909116815260200190565b63ffffffff9290921682526001600160601b0316602082015260400190565b60ff91909116815260200190565b6001600160601b0391909116815260200190565b6001600160601b0392831681529116602082015260400190565b6001600160a01b038116811461091957600080fdfe4d414b493a3a5f6d6f7665566f7465733a20766f746520616d6f756e7420756e646572666c6f77734d414b493a3a617070726f76653a20616d6f756e74206578636565647320393620626974734d414b493a3a5f7472616e73666572546f6b656e733a207472616e7366657220616d6f756e7420657863656564732062616c616e63654d414b493a3a7065726d69743a20616d6f756e74206578636565647320393620626974734d414b493a3a6d696e743a207472616e7366657220616d6f756e74206f766572666c6f77734d414b493a3a6275726e3a20616d6f756e74206578636565647320393620626974734d414b493a3a7472616e736665723a20616d6f756e74206578636565647320393620626974734d414b493a3a6d696e743a20616d6f756e74206578636565647320393620626974734d414b493a3a5f6d6f7665566f7465733a20766f746520616d6f756e74206f766572666c6f77734d414b493a3a6d696e743a20746f74616c537570706c79206578636565647320393620626974734d414b493a3a5f7772697465436865636b706f696e743a20626c6f636b206e756d626572206578636565647320333220626974734d414b493a3a5f7472616e73666572546f6b656e733a207472616e7366657220616d6f756e74206f766572666c6f77734d414b493a3a7472616e7366657246726f6d3a207472616e7366657220616d6f756e742065786365656473207370656e64657220616c6c6f77616e6365a2646970667358221220578cc8f50ac48f3d93df591d68dddca7e353f9f8c82adfd032d0da31a2e3ffaf64736f6c634300060c0033",
    "sourcePath": "/Users/Uni/Documents/GitHub/makiswap/makiswap-protocol/contracts/farm/MakiToken.sol",
    "compiler": {
        "name": "solc",
        "version": "0.6.12+commit.27d51765"
    },
    "functionHashes": {
        "DELEGATION_TYPEHASH()": "e7a324dc",
        "DOMAIN_TYPEHASH()": "20606b70",
        "PERMIT_TYPEHASH()": "30adf81f",
        "allowance(address,address)": "dd62ed3e",
        "approve(address,uint256)": "095ea7b3",
        "balanceOf(address)": "70a08231",
        "burn(uint256)": "42966c68",
        "checkpoints(address,uint32)": "f1127ed8",
        "decimals()": "313ce567",
        "delegate(address)": "5c19a95c",
        "delegateBySig(address,uint256,uint256,uint8,bytes32,bytes32)": "c3cda520",
        "delegates(address)": "587cde1e",
        "getCurrentVotes(address)": "b4b5ea57",
        "getPriorVotes(address,uint256)": "782d6fe1",
        "mint(address,uint256)": "40c10f19",
        "mintCap()": "76c71ca1",
        "minter()": "07546172",
        "name()": "06fdde03",
        "nonces(address)": "7ecebe00",
        "numCheckpoints(address)": "6fcfff45",
        "permit(address,address,uint256,uint256,uint8,bytes32,bytes32)": "d505accf",
        "setMinter(address)": "fca3b5aa",
        "symbol()": "95d89b41",
        "totalSupply()": "18160ddd",
        "transfer(address,uint256)": "a9059cbb",
        "transferFrom(address,address,uint256)": "23b872dd"
    },
    "gasEstimates": {
        "creation": {
            "codeDepositCost": "1771200",
            "executionCost": "54310",
            "totalCost": "1825510"
        },
        "external": {
            "DELEGATION_TYPEHASH()": "294",
            "DOMAIN_TYPEHASH()": "340",
            "PERMIT_TYPEHASH()": "274",
            "allowance(address,address)": "infinite",
            "approve(address,uint256)": "infinite",
            "balanceOf(address)": "1316",
            "burn(uint256)": "infinite",
            "checkpoints(address,uint32)": "1572",
            "decimals()": "308",
            "delegate(address)": "infinite",
            "delegateBySig(address,uint256,uint256,uint8,bytes32,bytes32)": "infinite",
            "delegates(address)": "1366",
            "getCurrentVotes(address)": "infinite",
            "getPriorVotes(address,uint256)": "infinite",
            "mint(address,uint256)": "infinite",
            "mintCap()": "285",
            "minter()": "1116",
            "name()": "infinite",
            "nonces(address)": "1346",
            "numCheckpoints(address)": "1386",
            "permit(address,address,uint256,uint256,uint8,bytes32,bytes32)": "infinite",
            "setMinter(address)": "24347",
            "symbol()": "infinite",
            "totalSupply()": "1118",
            "transfer(address,uint256)": "infinite",
            "transferFrom(address,address,uint256)": "infinite"
        },
        "internal": {
            "_delegate(address,address)": "infinite",
            "_moveDelegates(address,address,uint96)": "infinite",
            "_transferTokens(address,address,uint96)": "infinite",
            "_writeCheckpoint(address,uint32,uint96,uint96)": "infinite",
            "add96(uint96,uint96,string memory)": "infinite",
            "getChainId()": "14",
            "safe32(uint256,string memory)": "infinite",
            "safe96(uint256,string memory)": "infinite",
            "sub96(uint96,uint96,string memory)": "infinite"
        }
    }
}