{
    "contractName": "MasterChef",
    "abi": [
        {
            "inputs": [
                {
                    "internalType": "contract MakiToken",
                    "name": "_maki",
                    "type": "address"
                },
                {
                    "internalType": "contract SoyBar",
                    "name": "_soy",
                    "type": "address"
                },
                {
                    "internalType": "address",
                    "name": "_team",
                    "type": "address"
                },
                {
                    "internalType": "address",
                    "name": "_treasury",
                    "type": "address"
                },
                {
                    "internalType": "uint256",
                    "name": "_makiPerBlock",
                    "type": "uint256"
                },
                {
                    "internalType": "uint256",
                    "name": "_startBlock",
                    "type": "uint256"
                }
            ],
            "stateMutability": "nonpayable",
            "type": "constructor"
        },
        {
            "anonymous": false,
            "inputs": [
                {
                    "indexed": true,
                    "internalType": "address",
                    "name": "user",
                    "type": "address"
                },
                {
                    "indexed": true,
                    "internalType": "uint256",
                    "name": "pid",
                    "type": "uint256"
                },
                {
                    "indexed": false,
                    "internalType": "uint256",
                    "name": "amount",
                    "type": "uint256"
                }
            ],
            "name": "Deposit",
            "type": "event"
        },
        {
            "anonymous": false,
            "inputs": [
                {
                    "indexed": true,
                    "internalType": "address",
                    "name": "previousOwner",
                    "type": "address"
                },
                {
                    "indexed": true,
                    "internalType": "address",
                    "name": "newOwner",
                    "type": "address"
                }
            ],
            "name": "OwnershipTransferred",
            "type": "event"
        },
        {
            "anonymous": false,
            "inputs": [
                {
                    "indexed": false,
                    "internalType": "address",
                    "name": "team",
                    "type": "address"
                }
            ],
            "name": "Team",
            "type": "event"
        },
        {
            "anonymous": false,
            "inputs": [
                {
                    "indexed": false,
                    "internalType": "address",
                    "name": "treasury",
                    "type": "address"
                }
            ],
            "name": "Treasury",
            "type": "event"
        },
        {
            "anonymous": false,
            "inputs": [
                {
                    "indexed": true,
                    "internalType": "address",
                    "name": "user",
                    "type": "address"
                },
                {
                    "indexed": true,
                    "internalType": "uint256",
                    "name": "pid",
                    "type": "uint256"
                },
                {
                    "indexed": false,
                    "internalType": "uint256",
                    "name": "amount",
                    "type": "uint256"
                }
            ],
            "name": "Withdraw",
            "type": "event"
        },
        {
            "inputs": [
                {
                    "internalType": "uint256",
                    "name": "_allocPoint",
                    "type": "uint256"
                },
                {
                    "internalType": "address",
                    "name": "_lpToken",
                    "type": "address"
                },
                {
                    "internalType": "bool",
                    "name": "_withUpdate",
                    "type": "bool"
                }
            ],
            "name": "add",
            "outputs": [],
            "stateMutability": "nonpayable",
            "type": "function"
        },
        {
            "inputs": [],
            "name": "bonusMultiplier",
            "outputs": [
                {
                    "internalType": "uint256",
                    "name": "",
                    "type": "uint256"
                }
            ],
            "stateMutability": "view",
            "type": "function"
        },
        {
            "inputs": [
                {
                    "internalType": "uint256",
                    "name": "_pid",
                    "type": "uint256"
                },
                {
                    "internalType": "uint256",
                    "name": "_amount",
                    "type": "uint256"
                }
            ],
            "name": "deposit",
            "outputs": [],
            "stateMutability": "nonpayable",
            "type": "function"
        },
        {
            "inputs": [
                {
                    "internalType": "uint256",
                    "name": "_amount",
                    "type": "uint256"
                }
            ],
            "name": "enterStaking",
            "outputs": [],
            "stateMutability": "nonpayable",
            "type": "function"
        },
        {
            "inputs": [
                {
                    "internalType": "uint256",
                    "name": "_from",
                    "type": "uint256"
                },
                {
                    "internalType": "uint256",
                    "name": "_to",
                    "type": "uint256"
                }
            ],
            "name": "getMultiplier",
            "outputs": [
                {
                    "internalType": "uint256",
                    "name": "",
                    "type": "uint256"
                }
            ],
            "stateMutability": "view",
            "type": "function"
        },
        {
            "inputs": [
                {
                    "internalType": "uint256",
                    "name": "_amount",
                    "type": "uint256"
                }
            ],
            "name": "leaveStaking",
            "outputs": [],
            "stateMutability": "nonpayable",
            "type": "function"
        },
        {
            "inputs": [],
            "name": "maki",
            "outputs": [
                {
                    "internalType": "contract MakiToken",
                    "name": "",
                    "type": "address"
                }
            ],
            "stateMutability": "view",
            "type": "function"
        },
        {
            "inputs": [],
            "name": "makiPerBlock",
            "outputs": [
                {
                    "internalType": "uint256",
                    "name": "",
                    "type": "uint256"
                }
            ],
            "stateMutability": "view",
            "type": "function"
        },
        {
            "inputs": [],
            "name": "massUpdatePools",
            "outputs": [],
            "stateMutability": "nonpayable",
            "type": "function"
        },
        {
            "inputs": [
                {
                    "internalType": "uint256",
                    "name": "_pid",
                    "type": "uint256"
                }
            ],
            "name": "migrate",
            "outputs": [],
            "stateMutability": "nonpayable",
            "type": "function"
        },
        {
            "inputs": [],
            "name": "migrator",
            "outputs": [
                {
                    "internalType": "contract IMigratorChef",
                    "name": "",
                    "type": "address"
                }
            ],
            "stateMutability": "view",
            "type": "function"
        },
        {
            "inputs": [
                {
                    "internalType": "address",
                    "name": "_team",
                    "type": "address"
                }
            ],
            "name": "newTeam",
            "outputs": [],
            "stateMutability": "nonpayable",
            "type": "function"
        },
        {
            "inputs": [
                {
                    "internalType": "address",
                    "name": "_treasury",
                    "type": "address"
                }
            ],
            "name": "newTreasury",
            "outputs": [],
            "stateMutability": "nonpayable",
            "type": "function"
        },
        {
            "inputs": [],
            "name": "owner",
            "outputs": [
                {
                    "internalType": "address",
                    "name": "",
                    "type": "address"
                }
            ],
            "stateMutability": "view",
            "type": "function"
        },
        {
            "inputs": [
                {
                    "internalType": "uint256",
                    "name": "_pid",
                    "type": "uint256"
                },
                {
                    "internalType": "address",
                    "name": "_user",
                    "type": "address"
                }
            ],
            "name": "pendingMaki",
            "outputs": [
                {
                    "internalType": "uint256",
                    "name": "",
                    "type": "uint256"
                }
            ],
            "stateMutability": "view",
            "type": "function"
        },
        {
            "inputs": [
                {
                    "internalType": "uint256",
                    "name": "",
                    "type": "uint256"
                }
            ],
            "name": "poolInfo",
            "outputs": [
                {
                    "internalType": "address",
                    "name": "lpToken",
                    "type": "address"
                },
                {
                    "internalType": "uint256",
                    "name": "allocPoint",
                    "type": "uint256"
                },
                {
                    "internalType": "uint256",
                    "name": "lastRewardBlock",
                    "type": "uint256"
                },
                {
                    "internalType": "uint256",
                    "name": "accMakiPerShare",
                    "type": "uint256"
                }
            ],
            "stateMutability": "view",
            "type": "function"
        },
        {
            "inputs": [],
            "name": "poolLength",
            "outputs": [
                {
                    "internalType": "uint256",
                    "name": "",
                    "type": "uint256"
                }
            ],
            "stateMutability": "view",
            "type": "function"
        },
        {
            "inputs": [],
            "name": "renounceOwnership",
            "outputs": [],
            "stateMutability": "nonpayable",
            "type": "function"
        },
        {
            "inputs": [
                {
                    "internalType": "uint256",
                    "name": "_pid",
                    "type": "uint256"
                },
                {
                    "internalType": "uint256",
                    "name": "_allocPoint",
                    "type": "uint256"
                },
                {
                    "internalType": "bool",
                    "name": "_withUpdate",
                    "type": "bool"
                }
            ],
            "name": "set",
            "outputs": [],
            "stateMutability": "nonpayable",
            "type": "function"
        },
        {
            "inputs": [
                {
                    "internalType": "contract IMigratorChef",
                    "name": "_migrator",
                    "type": "address"
                }
            ],
            "name": "setMigrator",
            "outputs": [],
            "stateMutability": "nonpayable",
            "type": "function"
        },
        {
            "inputs": [],
            "name": "soy",
            "outputs": [
                {
                    "internalType": "contract SoyBar",
                    "name": "",
                    "type": "address"
                }
            ],
            "stateMutability": "view",
            "type": "function"
        },
        {
            "inputs": [],
            "name": "startBlock",
            "outputs": [
                {
                    "internalType": "uint256",
                    "name": "",
                    "type": "uint256"
                }
            ],
            "stateMutability": "view",
            "type": "function"
        },
        {
            "inputs": [],
            "name": "team",
            "outputs": [
                {
                    "internalType": "address",
                    "name": "",
                    "type": "address"
                }
            ],
            "stateMutability": "view",
            "type": "function"
        },
        {
            "inputs": [],
            "name": "totalAllocPoint",
            "outputs": [
                {
                    "internalType": "uint256",
                    "name": "",
                    "type": "uint256"
                }
            ],
            "stateMutability": "view",
            "type": "function"
        },
        {
            "inputs": [
                {
                    "internalType": "address",
                    "name": "newOwner",
                    "type": "address"
                }
            ],
            "name": "transferOwnership",
            "outputs": [],
            "stateMutability": "nonpayable",
            "type": "function"
        },
        {
            "inputs": [],
            "name": "treasury",
            "outputs": [
                {
                    "internalType": "address",
                    "name": "",
                    "type": "address"
                }
            ],
            "stateMutability": "view",
            "type": "function"
        },
        {
            "inputs": [
                {
                    "internalType": "uint256",
                    "name": "multiplierNumber",
                    "type": "uint256"
                }
            ],
            "name": "updateMultiplier",
            "outputs": [],
            "stateMutability": "nonpayable",
            "type": "function"
        },
        {
            "inputs": [
                {
                    "internalType": "uint256",
                    "name": "_pid",
                    "type": "uint256"
                }
            ],
            "name": "updatePool",
            "outputs": [],
            "stateMutability": "nonpayable",
            "type": "function"
        },
        {
            "inputs": [
                {
                    "internalType": "uint256",
                    "name": "",
                    "type": "uint256"
                },
                {
                    "internalType": "address",
                    "name": "",
                    "type": "address"
                }
            ],
            "name": "userInfo",
            "outputs": [
                {
                    "internalType": "uint256",
                    "name": "amount",
                    "type": "uint256"
                },
                {
                    "internalType": "uint256",
                    "name": "rewardDebt",
                    "type": "uint256"
                }
            ],
            "stateMutability": "view",
            "type": "function"
        },
        {
            "inputs": [
                {
                    "internalType": "uint256",
                    "name": "_pid",
                    "type": "uint256"
                },
                {
                    "internalType": "uint256",
                    "name": "_amount",
                    "type": "uint256"
                }
            ],
            "name": "withdraw",
            "outputs": [],
            "stateMutability": "nonpayable",
            "type": "function"
        }
    ],
    "bytecode": "608060405260106007556001600855436009556000600a5534801561002357600080fd5b506040516200286338038062002863833981810160405260c081101561004857600080fd5b508051602082015160408301516060840151608085015160a09095015193949293919290916000610077610208565b600080546001600160a01b0319166001600160a01b0383169081178255604051929350917f8be0079c531659141344cd1fd0a4f28419497f9722a3daafe3b4186f6b6457e0908290a3506001808055600280546001600160a01b03199081166001600160a01b03998a16908117909255600380548216988a1698909817909755600480548816968916969096178655600580548816958916959095179094556007929092556009819055604080516080810182529384526103e860208501818152918501928352600060608601818152600b8054968701815590915294517f0175b7a638427703f0dbe7bb9bbf987a2551717b34e79f33b5b1008d1fa01db9949096029384018054909716959097169490941790945591517f0175b7a638427703f0dbe7bb9bbf987a2551717b34e79f33b5b1008d1fa01dba83015591517f0175b7a638427703f0dbe7bb9bbf987a2551717b34e79f33b5b1008d1fa01dbb82015590517f0175b7a638427703f0dbe7bb9bbf987a2551717b34e79f33b5b1008d1fa01dbc90910155600a5561020c565b3390565b612647806200021c6000396000f3fe608060405234801561001057600080fd5b50600436106101da5760003560e01c806364482f79116101045780638dbb1e3a116100a2578063e06f926f11610071578063e06f926f146104af578063e2bbb158146104d5578063e5f6e9c9146104f8578063f2fde38b14610500576101da565b80638dbb1e3a1461041957806393f1a40b1461043c5780639718b52414610481578063a8b973a1146104a7576101da565b8063717559c3116100de578063717559c3146103f95780637cd07e471461040157806385f2aef2146104095780638da5cb5b14610411576101da565b806364482f791461039a5780636818e928146103c5578063715018a6146103f1576101da565b806341441d3b1161017c57806351eb05a61161014b57806351eb05a6146103505780635ffe61461461036d57806361d027b31461038a578063630b5ba114610392576101da565b806341441d3b146102eb578063441a3e7014610308578063454b06081461032b57806348cd4cb114610348576101da565b806317caf6f1116101b857806317caf6f1146102655780631eaaa0451461026d57806323cf3118146102a157806339e1be0e146102c7576101da565b8063081e3eda146101df5780631058d281146101f95780631526fe2714610218575b600080fd5b6101e7610526565b60408051918252519081900360200190f35b6102166004803603602081101561020f57600080fd5b503561052c565b005b6102356004803603602081101561022e57600080fd5b503561075c565b604080516001600160a01b0390951685526020850193909352838301919091526060830152519081900360800190f35b6101e761079d565b6102166004803603606081101561028357600080fd5b508035906001600160a01b03602082013516906040013515156107a3565b610216600480360360208110156102b757600080fd5b50356001600160a01b031661081e565b6102cf6108a2565b604080516001600160a01b039092168252519081900360200190f35b6102166004803603602081101561030157600080fd5b50356108b1565b6102166004803603604081101561031e57600080fd5b5080359060200135610a97565b6102166004803603602081101561034157600080fd5b5035610cda565b6101e7610f85565b6102166004803603602081101561036657600080fd5b5035610f8b565b6102166004803603602081101561038357600080fd5b5035611297565b6102cf6112e5565b6102166112f4565b610216600480360360608110156103b057600080fd5b50803590602081013590604001351515611313565b6101e7600480360360408110156103db57600080fd5b50803590602001356001600160a01b031661149b565b6102166115ff565b6102cf6116ab565b6102cf6116ba565b6102cf6116c9565b6102cf6116d8565b6101e76004803603604081101561042f57600080fd5b50803590602001356116e7565b6104686004803603604081101561045257600080fd5b50803590602001356001600160a01b0316611702565b6040805192835260208301919091528051918290030190f35b6102166004803603602081101561049757600080fd5b50356001600160a01b0316611726565b6101e76117ee565b610216600480360360208110156104c557600080fd5b50356001600160a01b03166117f4565b610216600480360360408110156104eb57600080fd5b508035906020013561189f565b6101e7611aa1565b6102166004803603602081101561051657600080fd5b50356001600160a01b0316611aa7565b600b5490565b60026001541415610572576040805162461bcd60e51b815260206004820152601f6024820152600080516020612501833981519152604482015290519081900360640190fd5b60026001819055506000600b60008154811061058a57fe5b600091825260208083203384527f13649b2456f1b42fef0f0040b3aaeabcd21a76a0f3f5defd4f583839455116e89091526040909220805460049092029092019250831115610615576040805162461bcd60e51b81526020600482015260126024820152711dda5d1a191c985dce881b9bdd0819dbdbd960721b604482015290519081900360640190fd5b61061f6000610f8b565b6000610659826001015461065364e8d4a5100061064d87600301548760000154611ba990919063ffffffff16565b90611c02565b90611c44565b9050801561066b5761066b3382611c86565b831561069557815461067d9085611c44565b82558254610695906001600160a01b03163386611cf7565b600383015482546106b09164e8d4a510009161064d91611ba9565b600183015560035460408051630852cd8d60e31b81526004810187905290516001600160a01b03909216916342966c689160248082019260009290919082900301818387803b15801561070257600080fd5b505af1158015610716573d6000803e3d6000fd5b5050604080518781529051600093503392507ff279e6a1f5e320cca91135676d9cb6e44ca8a08c0b88342bcdb1144f6511b5689181900360200190a35050600180555050565b600b818154811061076957fe5b600091825260209091206004909102018054600182015460028301546003909301546001600160a01b039092169350919084565b600a5481565b6107ab611d49565b6001600160a01b03166107bc6116d8565b6001600160a01b031614610805576040805162461bcd60e51b81526020600482018190526024820152600080516020612592833981519152604482015290519081900360640190fd5b61080e82611d4d565b610819838383611ddc565b505050565b610826611d49565b6001600160a01b03166108376116d8565b6001600160a01b031614610880576040805162461bcd60e51b81526020600482018190526024820152600080516020612592833981519152604482015290519081900360640190fd5b600680546001600160a01b0319166001600160a01b0392909216919091179055565b6003546001600160a01b031681565b600260015414156108f7576040805162461bcd60e51b815260206004820152601f6024820152600080516020612501833981519152604482015290519081900360640190fd5b60026001819055506000600b60008154811061090f57fe5b600091825260208083203384527f13649b2456f1b42fef0f0040b3aaeabcd21a76a0f3f5defd4f583839455116e89091526040832060049092020192509061095690610f8b565b80541561099f57600061098b826001015461065364e8d4a5100061064d87600301548760000154611ba990919063ffffffff16565b9050801561099d5761099d3382611c86565b505b82156109cb5781546109bc906001600160a01b0316333086611f0a565b80546109c89084611f64565b81555b600382015481546109e69164e8d4a510009161064d91611ba9565b6001820155600354604080516340c10f1960e01b81523360048201526024810186905290516001600160a01b03909216916340c10f199160448082019260009290919082900301818387803b158015610a3e57600080fd5b505af1158015610a52573d6000803e3d6000fd5b5050604080518681529051600093503392507f90890809c654f11d6e72a28fa60149770a0d11ec6c92319d6ceb2bb0a4ea1a159181900360200190a350506001805550565b60026001541415610add576040805162461bcd60e51b815260206004820152601f6024820152600080516020612501833981519152604482015290519081900360640190fd5b6002600155600b5482908110610b30576040805162461bcd60e51b8152602060048201526013602482015272141bdbdb08191bd95cc81b9bdd08195e1a5cdd606a1b604482015290519081900360640190fd5b82610b82576040805162461bcd60e51b815260206004820152601a60248201527f7769746864726177204d414b4920627920756e7374616b696e67000000000000604482015290519081900360640190fd5b6000600b8481548110610b9157fe5b60009182526020808320878452600c825260408085203386529092529220805460049092029092019250841115610c04576040805162461bcd60e51b81526020600482015260126024820152711dda5d1a191c985dce881b9bdd0819dbdbd960721b604482015290519081900360640190fd5b610c0d85610f8b565b6000610c3b826001015461065364e8d4a5100061064d87600301548760000154611ba990919063ffffffff16565b90508015610c4d57610c4d3382611c86565b8415610c77578154610c5f9086611c44565b82558254610c77906001600160a01b03163387611cf7565b60038301548254610c929164e8d4a510009161064d91611ba9565b6001830155604080518681529051879133917ff279e6a1f5e320cca91135676d9cb6e44ca8a08c0b88342bcdb1144f6511b5689181900360200190a350506001805550505050565b600b5481908110610d28576040805162461bcd60e51b8152602060048201526013602482015272141bdbdb08191bd95cc81b9bdd08195e1a5cdd606a1b604482015290519081900360640190fd5b6006546001600160a01b0316610d7c576040805162461bcd60e51b815260206004820152601460248201527336b4b3b930ba329d1037379036b4b3b930ba37b960611b604482015290519081900360640190fd5b6000600b8381548110610d8b57fe5b600091825260208083206004928302018054604080516370a0823160e01b81523095810195909552519195506001600160a01b0316939284926370a0823192602480840193829003018186803b158015610de457600080fd5b505afa158015610df8573d6000803e3d6000fd5b505050506040513d6020811015610e0e57600080fd5b5051600654909150610e2d906001600160a01b03848116911683611fbe565b6006546040805163ce5494bb60e01b81526001600160a01b0385811660048301529151600093929092169163ce5494bb9160248082019260209290919082900301818787803b158015610e7f57600080fd5b505af1158015610e93573d6000803e3d6000fd5b505050506040513d6020811015610ea957600080fd5b5051604080516370a0823160e01b815230600482015290519192506001600160a01b038316916370a0823191602480820192602092909190829003018186803b158015610ef557600080fd5b505afa158015610f09573d6000803e3d6000fd5b505050506040513d6020811015610f1f57600080fd5b50518214610f63576040805162461bcd60e51b815260206004820152600c60248201526b1b5a59dc985d194e8818985960a21b604482015290519081900360640190fd5b83546001600160a01b0319166001600160a01b03919091161790925550505050565b60095481565b600b5481908110610fd9576040805162461bcd60e51b8152602060048201526013602482015272141bdbdb08191bd95cc81b9bdd08195e1a5cdd606a1b604482015290519081900360640190fd5b6000600b8381548110610fe857fe5b90600052602060002090600402019050806002015443116110095750611293565b8054604080516370a0823160e01b815230600482015290516000926001600160a01b0316916370a08231916024808301926020929190829003018186803b15801561105357600080fd5b505afa158015611067573d6000803e3d6000fd5b505050506040513d602081101561107d57600080fd5b5051905080611093575043600290910155611293565b60006110a38360020154436116e7565b905060006110d0600a5461064d86600101546110ca60075487611ba990919063ffffffff16565b90611ba9565b905060006110e661247561064d846103e8611ba9565b905060006110ff6110f8836002611ba9565b8490611c44565b60025460048054604080516340c10f1960e01b81526001600160a01b03928316938101939093526024830187905251939450909116916340c10f199160448082019260009290919082900301818387803b15801561115c57600080fd5b505af1158015611170573d6000803e3d6000fd5b5050600254600554604080516340c10f1960e01b81526001600160a01b0392831660048201526024810188905290519190921693506340c10f199250604480830192600092919082900301818387803b1580156111cc57600080fd5b505af11580156111e0573d6000803e3d6000fd5b5050600254600354604080516340c10f1960e01b81526001600160a01b0392831660048201526024810187905290519190921693506340c10f199250604480830192600092919082900301818387803b15801561123c57600080fd5b505af1158015611250573d6000803e3d6000fd5b5050505061127e6112738661064d64e8d4a5100085611ba990919063ffffffff16565b600388015490611f64565b60038701555050436002909401939093555050505b5050565b6005546001600160a01b031633146112e05760405162461bcd60e51b815260040180806020018281038252602a815260200180612547602a913960400191505060405180910390fd5b600855565b6005546001600160a01b031681565b600b5460005b818110156112935761130b81610f8b565b6001016112fa565b61131b611d49565b6001600160a01b031661132c6116d8565b6001600160a01b031614611375576040805162461bcd60e51b81526020600482018190526024820152600080516020612592833981519152604482015290519081900360640190fd5b600b54839081106113c3576040805162461bcd60e51b8152602060048201526013602482015272141bdbdb08191bd95cc81b9bdd08195e1a5cdd606a1b604482015290519081900360640190fd5b600b54841061140f576040805162461bcd60e51b8152602060048201526013602482015272141bdbdb08191bd95cc81b9bdd08195e1a5cdd606a1b604482015290519081900360640190fd5b811561141d5761141d6112f4565b6000600b858154811061142c57fe5b906000526020600020906004020160010154905083600b868154811061144e57fe5b906000526020600020906004020160010181905550838114611494576114898461148383600a54611c4490919063ffffffff16565b90611f64565b600a556114946120d1565b5050505050565b600080600b84815481106114ab57fe5b60009182526020808320878452600c825260408085206001600160a01b03898116875290845281862060049586029093016003810154815484516370a0823160e01b81523098810198909852935191985093969395939492909116926370a08231926024808301939192829003018186803b15801561152957600080fd5b505afa15801561153d573d6000803e3d6000fd5b505050506040513d602081101561155357600080fd5b505160028501549091504311801561156a57508015155b156115ca57600061157f8560020154436116e7565b905060006115a6600a5461064d88600101546110ca60075487611ba990919063ffffffff16565b90506115c56115be8461064d8464e8d4a51000611ba9565b8590611f64565b935050505b6115f2836001015461065364e8d4a5100061064d868860000154611ba990919063ffffffff16565b9450505050505b92915050565b611607611d49565b6001600160a01b03166116186116d8565b6001600160a01b031614611661576040805162461bcd60e51b81526020600482018190526024820152600080516020612592833981519152604482015290519081900360640190fd5b600080546040516001600160a01b03909116907f8be0079c531659141344cd1fd0a4f28419497f9722a3daafe3b4186f6b6457e0908390a3600080546001600160a01b0319169055565b6002546001600160a01b031681565b6006546001600160a01b031681565b6004546001600160a01b031681565b6000546001600160a01b031690565b6008546000906116fb906110ca8486611c44565b9392505050565b600c6020908152600092835260408084209091529082529020805460019091015482565b6005546001600160a01b031633148061174957506004546001600160a01b031633145b61179a576040805162461bcd60e51b815260206004820152601d60248201527f74726561737572793a20696e76616c6964207065726d697373696f6e73000000604482015290519081900360640190fd5b600580546001600160a01b0383166001600160a01b0319909116811790915560408051918252517ffb26c00f7d7dba814173c8a2db3466cb26ee25fdcec8867af7da3aa1f296addd9181900360200190a150565b60085481565b6004546001600160a01b0316331461184b576040805162461bcd60e51b81526020600482015260156024820152747465616d3a206c652077686f2061726520796f753f60581b604482015290519081900360640190fd5b600480546001600160a01b0383166001600160a01b0319909116811790915560408051918252517fd515b1ce27974a342708ce7a15e474c2aaf2a8b3d921b2184e970cdd715913369181900360200190a150565b600260015414156118e5576040805162461bcd60e51b815260206004820152601f6024820152600080516020612501833981519152604482015290519081900360640190fd5b6002600155600b5482908110611938576040805162461bcd60e51b8152602060048201526013602482015272141bdbdb08191bd95cc81b9bdd08195e1a5cdd606a1b604482015290519081900360640190fd5b8261198a576040805162461bcd60e51b815260206004820152601760248201527f6465706f736974204d414b49206279207374616b696e67000000000000000000604482015290519081900360640190fd5b6000600b848154811061199957fe5b60009182526020808320878452600c825260408085203386529092529220600490910290910191506119ca85610f8b565b805415611a135760006119ff826001015461065364e8d4a5100061064d87600301548760000154611ba990919063ffffffff16565b90508015611a1157611a113382611c86565b505b8315611a3f578154611a30906001600160a01b0316333087611f0a565b8054611a3c9085611f64565b81555b60038201548154611a5a9164e8d4a510009161064d91611ba9565b6001820155604080518581529051869133917f90890809c654f11d6e72a28fa60149770a0d11ec6c92319d6ceb2bb0a4ea1a159181900360200190a3505060018055505050565b60075481565b611aaf611d49565b6001600160a01b0316611ac06116d8565b6001600160a01b031614611b09576040805162461bcd60e51b81526020600482018190526024820152600080516020612592833981519152604482015290519081900360640190fd5b6001600160a01b038116611b4e5760405162461bcd60e51b81526004018080602001828103825260268152602001806125216026913960400191505060405180910390fd5b600080546040516001600160a01b03808516939216917f8be0079c531659141344cd1fd0a4f28419497f9722a3daafe3b4186f6b6457e091a3600080546001600160a01b0319166001600160a01b0392909216919091179055565b600082611bb8575060006115f9565b82820282848281611bc557fe5b04146116fb5760405162461bcd60e51b81526004018080602001828103825260218152602001806125716021913960400191505060405180910390fd5b60006116fb83836040518060400160405280601a81526020017f536166654d6174683a206469766973696f6e206279207a65726f000000000000815250612196565b60006116fb83836040518060400160405280601e81526020017f536166654d6174683a207375627472616374696f6e206f766572666c6f770000815250612238565b6003546040805163befa360560e01b81526001600160a01b038581166004830152602482018590529151919092169163befa360591604480830192600092919082900301818387803b158015611cdb57600080fd5b505af1158015611cef573d6000803e3d6000fd5b505050505050565b604080516001600160a01b038416602482015260448082018490528251808303909101815260649091019091526020810180516001600160e01b031663a9059cbb60e01b179052610819908490612292565b3390565b600b5460005b8181101561081957826001600160a01b0316600b8281548110611d7257fe5b60009182526020909120600490910201546001600160a01b03161415611dd4576040805162461bcd60e51b81526020600482015260126024820152711859190e88195e1a5cdd1a5b99c81c1bdbdb60721b604482015290519081900360640190fd5b600101611d53565b8015611dea57611dea6112f4565b60006009544311611dfd57600954611dff565b435b600a54909150611e0f9085611f64565b600a55604080516080810182526001600160a01b03858116825260208201878152928201848152600060608401818152600b8054600181018255925293517f0175b7a638427703f0dbe7bb9bbf987a2551717b34e79f33b5b1008d1fa01db9600490920291820180546001600160a01b031916919094161790925592517f0175b7a638427703f0dbe7bb9bbf987a2551717b34e79f33b5b1008d1fa01dba82015591517f0175b7a638427703f0dbe7bb9bbf987a2551717b34e79f33b5b1008d1fa01dbb830155517f0175b7a638427703f0dbe7bb9bbf987a2551717b34e79f33b5b1008d1fa01dbc90910155611f046120d1565b50505050565b604080516001600160a01b0380861660248301528416604482015260648082018490528251808303909101815260849091019091526020810180516001600160e01b03166323b872dd60e01b179052611f04908590612292565b6000828201838110156116fb576040805162461bcd60e51b815260206004820152601b60248201527f536166654d6174683a206164646974696f6e206f766572666c6f770000000000604482015290519081900360640190fd5b801580612044575060408051636eb1769f60e11b81523060048201526001600160a01b03848116602483015291519185169163dd62ed3e91604480820192602092909190829003018186803b15801561201657600080fd5b505afa15801561202a573d6000803e3d6000fd5b505050506040513d602081101561204057600080fd5b5051155b61207f5760405162461bcd60e51b81526004018080602001828103825260368152602001806125dc6036913960400191505060405180910390fd5b604080516001600160a01b038416602482015260448082018490528251808303909101815260649091019091526020810180516001600160e01b031663095ea7b360e01b179052610819908490612292565b600b54600060015b8281101561211c57612112600b82815481106120f157fe5b90600052602060002090600402016001015483611f6490919063ffffffff16565b91506001016120d9565b5080156112935761212e816003611c02565b905061216881611483600b60008154811061214557fe5b906000526020600020906004020160010154600a54611c4490919063ffffffff16565b600a8190555080600b60008154811061217d57fe5b9060005260206000209060040201600101819055505050565b600081836122225760405162461bcd60e51b81526004018080602001828103825283818151815260200191508051906020019080838360005b838110156121e75781810151838201526020016121cf565b50505050905090810190601f1680156122145780820380516001836020036101000a031916815260200191505b509250505060405180910390fd5b50600083858161222e57fe5b0495945050505050565b6000818484111561228a5760405162461bcd60e51b81526020600482018181528351602484015283519092839260449091019190850190808383600083156121e75781810151838201526020016121cf565b505050900390565b60606122e7826040518060400160405280602081526020017f5361666548524332303a206c6f772d6c6576656c2063616c6c206661696c6564815250856001600160a01b03166123439092919063ffffffff16565b8051909150156108195780806020019051602081101561230657600080fd5b50516108195760405162461bcd60e51b815260040180806020018281038252602a8152602001806125b2602a913960400191505060405180910390fd5b6060612352848460008561235a565b949350505050565b6060612365856124c7565b6123b6576040805162461bcd60e51b815260206004820152601d60248201527f416464726573733a2063616c6c20746f206e6f6e2d636f6e7472616374000000604482015290519081900360640190fd5b60006060866001600160a01b031685876040518082805190602001908083835b602083106123f55780518252601f1990920191602091820191016123d6565b6001836020036101000a03801982511681845116808217855250505050505090500191505060006040518083038185875af1925050503d8060008114612457576040519150601f19603f3d011682016040523d82523d6000602084013e61245c565b606091505b509150915081156124705791506123529050565b8051156124805780518082602001fd5b60405162461bcd60e51b81526020600482018181528651602484015286518793919283926044019190850190808383600083156121e75781810151838201526020016121cf565b6000813f7fc5d2460186f7233c927e7db2dcc703c0e500b653ca82273b7bfad8045d85a47081811480159061235257505015159291505056fe5265656e7472616e637947756172643a207265656e7472616e742063616c6c004f776e61626c653a206e6577206f776e657220697320746865207a65726f20616464726573737570646174654d756c7469706c6965723a206f6e6c79207472656173757279206d617920757064617465536166654d6174683a206d756c7469706c69636174696f6e206f766572666c6f774f776e61626c653a2063616c6c6572206973206e6f7420746865206f776e65725361666548524332303a204852433230206f7065726174696f6e20646964206e6f7420737563636565645361666548524332303a20617070726f76652066726f6d206e6f6e2d7a65726f20746f206e6f6e2d7a65726f20616c6c6f77616e6365a264697066735822122093066932df2fa4469a39bbae87d018f8e357eb20cf5d143055cfaa2af5b9bf9664736f6c634300060c0033",
    "sourcePath": "/Users/Uni/Documents/GitHub/makiswap/makiswap-protocol/contracts/farm/MasterChef.sol",
    "compiler": {
        "name": "solc",
        "version": "0.6.12+commit.27d51765"
    },
    "functionHashes": {
        "add(uint256,address,bool)": "1eaaa045",
        "bonusMultiplier()": "a8b973a1",
        "deposit(uint256,uint256)": "e2bbb158",
        "enterStaking(uint256)": "41441d3b",
        "getMultiplier(uint256,uint256)": "8dbb1e3a",
        "leaveStaking(uint256)": "1058d281",
        "maki()": "717559c3",
        "makiPerBlock()": "e5f6e9c9",
        "massUpdatePools()": "630b5ba1",
        "migrate(uint256)": "454b0608",
        "migrator()": "7cd07e47",
        "newTeam(address)": "e06f926f",
        "newTreasury(address)": "9718b524",
        "owner()": "8da5cb5b",
        "pendingMaki(uint256,address)": "6818e928",
        "poolInfo(uint256)": "1526fe27",
        "poolLength()": "081e3eda",
        "renounceOwnership()": "715018a6",
        "set(uint256,uint256,bool)": "64482f79",
        "setMigrator(address)": "23cf3118",
        "soy()": "39e1be0e",
        "startBlock()": "48cd4cb1",
        "team()": "85f2aef2",
        "totalAllocPoint()": "17caf6f1",
        "transferOwnership(address)": "f2fde38b",
        "treasury()": "61d027b3",
        "updateMultiplier(uint256)": "5ffe6146",
        "updatePool(uint256)": "51eb05a6",
        "userInfo(uint256,address)": "93f1a40b",
        "withdraw(uint256,uint256)": "441a3e70"
    },
    "gasEstimates": {
        "creation": {
            "codeDepositCost": "1959800",
            "executionCost": "infinite",
            "totalCost": "infinite"
        },
        "external": {
            "add(uint256,address,bool)": "infinite",
            "bonusMultiplier()": "1109",
            "deposit(uint256,uint256)": "infinite",
            "enterStaking(uint256)": "infinite",
            "getMultiplier(uint256,uint256)": "infinite",
            "leaveStaking(uint256)": "infinite",
            "maki()": "1082",
            "makiPerBlock()": "1086",
            "massUpdatePools()": "infinite",
            "migrate(uint256)": "infinite",
            "migrator()": "1104",
            "newTeam(address)": "23013",
            "newTreasury(address)": "23903",
            "owner()": "1148",
            "pendingMaki(uint256,address)": "infinite",
            "poolInfo(uint256)": "4583",
            "poolLength()": "1045",
            "renounceOwnership()": "infinite",
            "set(uint256,uint256,bool)": "infinite",
            "setMigrator(address)": "infinite",
            "soy()": "1149",
            "startBlock()": "1110",
            "team()": "1126",
            "totalAllocPoint()": "1044",
            "transferOwnership(address)": "infinite",
            "treasury()": "1126",
            "updateMultiplier(uint256)": "infinite",
            "updatePool(uint256)": "infinite",
            "userInfo(uint256,address)": "2117",
            "withdraw(uint256,uint256)": "infinite"
        },
        "internal": {
            "addPool(uint256,address,bool)": "infinite",
            "checkPoolDuplicate(address)": "infinite",
            "safeMakiTransfer(address,uint256)": "infinite",
            "updateStakingPool()": "infinite"
        }
    }
}