{
    "contractName": "MasterChef",
    "abi": [
        {
            "inputs": [
                {
                    "internalType": "contract MakiToken",
                    "name": "_maki",
                    "type": "address"
                },
                {
                    "internalType": "contract SoyBar",
                    "name": "_soy",
                    "type": "address"
                },
                {
                    "internalType": "address",
                    "name": "_team",
                    "type": "address"
                },
                {
                    "internalType": "address",
                    "name": "_treasury",
                    "type": "address"
                },
                {
                    "internalType": "uint256",
                    "name": "_makiPerBlock",
                    "type": "uint256"
                },
                {
                    "internalType": "uint256",
                    "name": "_startBlock",
                    "type": "uint256"
                }
            ],
            "stateMutability": "nonpayable",
            "type": "constructor"
        },
        {
            "anonymous": false,
            "inputs": [
                {
                    "indexed": true,
                    "internalType": "address",
                    "name": "user",
                    "type": "address"
                },
                {
                    "indexed": true,
                    "internalType": "uint256",
                    "name": "pid",
                    "type": "uint256"
                },
                {
                    "indexed": false,
                    "internalType": "uint256",
                    "name": "amount",
                    "type": "uint256"
                }
            ],
            "name": "Deposit",
            "type": "event"
        },
        {
            "anonymous": false,
            "inputs": [
                {
                    "indexed": true,
                    "internalType": "address",
                    "name": "previousOwner",
                    "type": "address"
                },
                {
                    "indexed": true,
                    "internalType": "address",
                    "name": "newOwner",
                    "type": "address"
                }
            ],
            "name": "OwnershipTransferred",
            "type": "event"
        },
        {
            "anonymous": false,
            "inputs": [
                {
                    "indexed": false,
                    "internalType": "address",
                    "name": "team",
                    "type": "address"
                }
            ],
            "name": "Team",
            "type": "event"
        },
        {
            "anonymous": false,
            "inputs": [
                {
                    "indexed": false,
                    "internalType": "address",
                    "name": "treasury",
                    "type": "address"
                }
            ],
            "name": "Treasury",
            "type": "event"
        },
        {
            "anonymous": false,
            "inputs": [
                {
                    "indexed": true,
                    "internalType": "address",
                    "name": "user",
                    "type": "address"
                },
                {
                    "indexed": true,
                    "internalType": "uint256",
                    "name": "pid",
                    "type": "uint256"
                },
                {
                    "indexed": false,
                    "internalType": "uint256",
                    "name": "amount",
                    "type": "uint256"
                }
            ],
            "name": "Withdraw",
            "type": "event"
        },
        {
            "inputs": [
                {
                    "internalType": "uint256",
                    "name": "_allocPoint",
                    "type": "uint256"
                },
                {
                    "internalType": "contract IHRC20",
                    "name": "_lpToken",
                    "type": "address"
                },
                {
                    "internalType": "bool",
                    "name": "_withUpdate",
                    "type": "bool"
                }
            ],
            "name": "add",
            "outputs": [],
            "stateMutability": "nonpayable",
            "type": "function"
        },
        {
            "inputs": [],
            "name": "bonusMultiplier",
            "outputs": [
                {
                    "internalType": "uint256",
                    "name": "",
                    "type": "uint256"
                }
            ],
            "stateMutability": "view",
            "type": "function"
        },
        {
            "inputs": [
                {
                    "internalType": "uint256",
                    "name": "_pid",
                    "type": "uint256"
                },
                {
                    "internalType": "uint256",
                    "name": "_amount",
                    "type": "uint256"
                }
            ],
            "name": "deposit",
            "outputs": [],
            "stateMutability": "nonpayable",
            "type": "function"
        },
        {
            "inputs": [
                {
                    "internalType": "uint256",
                    "name": "_amount",
                    "type": "uint256"
                }
            ],
            "name": "enterStaking",
            "outputs": [],
            "stateMutability": "nonpayable",
            "type": "function"
        },
        {
            "inputs": [
                {
                    "internalType": "uint256",
                    "name": "_from",
                    "type": "uint256"
                },
                {
                    "internalType": "uint256",
                    "name": "_to",
                    "type": "uint256"
                }
            ],
            "name": "getMultiplier",
            "outputs": [
                {
                    "internalType": "uint256",
                    "name": "",
                    "type": "uint256"
                }
            ],
            "stateMutability": "view",
            "type": "function"
        },
        {
            "inputs": [
                {
                    "internalType": "uint256",
                    "name": "_amount",
                    "type": "uint256"
                }
            ],
            "name": "leaveStaking",
            "outputs": [],
            "stateMutability": "nonpayable",
            "type": "function"
        },
        {
            "inputs": [],
            "name": "maki",
            "outputs": [
                {
                    "internalType": "contract MakiToken",
                    "name": "",
                    "type": "address"
                }
            ],
            "stateMutability": "view",
            "type": "function"
        },
        {
            "inputs": [],
            "name": "makiPerBlock",
            "outputs": [
                {
                    "internalType": "uint256",
                    "name": "",
                    "type": "uint256"
                }
            ],
            "stateMutability": "view",
            "type": "function"
        },
        {
            "inputs": [],
            "name": "massUpdatePools",
            "outputs": [],
            "stateMutability": "nonpayable",
            "type": "function"
        },
        {
            "inputs": [
                {
                    "internalType": "uint256",
                    "name": "_pid",
                    "type": "uint256"
                }
            ],
            "name": "migrate",
            "outputs": [],
            "stateMutability": "nonpayable",
            "type": "function"
        },
        {
            "inputs": [],
            "name": "migrator",
            "outputs": [
                {
                    "internalType": "contract IMigratorChef",
                    "name": "",
                    "type": "address"
                }
            ],
            "stateMutability": "view",
            "type": "function"
        },
        {
            "inputs": [
                {
                    "internalType": "address",
                    "name": "_team",
                    "type": "address"
                }
            ],
            "name": "newTeam",
            "outputs": [],
            "stateMutability": "nonpayable",
            "type": "function"
        },
        {
            "inputs": [
                {
                    "internalType": "address",
                    "name": "_treasury",
                    "type": "address"
                }
            ],
            "name": "newTreasury",
            "outputs": [],
            "stateMutability": "nonpayable",
            "type": "function"
        },
        {
            "inputs": [],
            "name": "owner",
            "outputs": [
                {
                    "internalType": "address",
                    "name": "",
                    "type": "address"
                }
            ],
            "stateMutability": "view",
            "type": "function"
        },
        {
            "inputs": [
                {
                    "internalType": "uint256",
                    "name": "_pid",
                    "type": "uint256"
                },
                {
                    "internalType": "address",
                    "name": "_user",
                    "type": "address"
                }
            ],
            "name": "pendingMaki",
            "outputs": [
                {
                    "internalType": "uint256",
                    "name": "",
                    "type": "uint256"
                }
            ],
            "stateMutability": "view",
            "type": "function"
        },
        {
            "inputs": [
                {
                    "internalType": "uint256",
                    "name": "",
                    "type": "uint256"
                }
            ],
            "name": "poolInfo",
            "outputs": [
                {
                    "internalType": "contract IHRC20",
                    "name": "lpToken",
                    "type": "address"
                },
                {
                    "internalType": "uint256",
                    "name": "allocPoint",
                    "type": "uint256"
                },
                {
                    "internalType": "uint256",
                    "name": "lastRewardBlock",
                    "type": "uint256"
                },
                {
                    "internalType": "uint256",
                    "name": "accMakiPerShare",
                    "type": "uint256"
                }
            ],
            "stateMutability": "view",
            "type": "function"
        },
        {
            "inputs": [],
            "name": "poolLength",
            "outputs": [
                {
                    "internalType": "uint256",
                    "name": "",
                    "type": "uint256"
                }
            ],
            "stateMutability": "view",
            "type": "function"
        },
        {
            "inputs": [],
            "name": "renounceOwnership",
            "outputs": [],
            "stateMutability": "nonpayable",
            "type": "function"
        },
        {
            "inputs": [
                {
                    "internalType": "uint256",
                    "name": "_pid",
                    "type": "uint256"
                },
                {
                    "internalType": "uint256",
                    "name": "_allocPoint",
                    "type": "uint256"
                },
                {
                    "internalType": "bool",
                    "name": "_withUpdate",
                    "type": "bool"
                }
            ],
            "name": "set",
            "outputs": [],
            "stateMutability": "nonpayable",
            "type": "function"
        },
        {
            "inputs": [
                {
                    "internalType": "contract IMigratorChef",
                    "name": "_migrator",
                    "type": "address"
                }
            ],
            "name": "setMigrator",
            "outputs": [],
            "stateMutability": "nonpayable",
            "type": "function"
        },
        {
            "inputs": [],
            "name": "soy",
            "outputs": [
                {
                    "internalType": "contract SoyBar",
                    "name": "",
                    "type": "address"
                }
            ],
            "stateMutability": "view",
            "type": "function"
        },
        {
            "inputs": [],
            "name": "startBlock",
            "outputs": [
                {
                    "internalType": "uint256",
                    "name": "",
                    "type": "uint256"
                }
            ],
            "stateMutability": "view",
            "type": "function"
        },
        {
            "inputs": [],
            "name": "team",
            "outputs": [
                {
                    "internalType": "address",
                    "name": "",
                    "type": "address"
                }
            ],
            "stateMutability": "view",
            "type": "function"
        },
        {
            "inputs": [],
            "name": "totalAllocPoint",
            "outputs": [
                {
                    "internalType": "uint256",
                    "name": "",
                    "type": "uint256"
                }
            ],
            "stateMutability": "view",
            "type": "function"
        },
        {
            "inputs": [
                {
                    "internalType": "address",
                    "name": "newOwner",
                    "type": "address"
                }
            ],
            "name": "transferOwnership",
            "outputs": [],
            "stateMutability": "nonpayable",
            "type": "function"
        },
        {
            "inputs": [],
            "name": "treasury",
            "outputs": [
                {
                    "internalType": "address",
                    "name": "",
                    "type": "address"
                }
            ],
            "stateMutability": "view",
            "type": "function"
        },
        {
            "inputs": [
                {
                    "internalType": "uint256",
                    "name": "multiplierNumber",
                    "type": "uint256"
                }
            ],
            "name": "updateMultiplier",
            "outputs": [],
            "stateMutability": "nonpayable",
            "type": "function"
        },
        {
            "inputs": [
                {
                    "internalType": "uint256",
                    "name": "_pid",
                    "type": "uint256"
                }
            ],
            "name": "updatePool",
            "outputs": [],
            "stateMutability": "nonpayable",
            "type": "function"
        },
        {
            "inputs": [
                {
                    "internalType": "uint256",
                    "name": "",
                    "type": "uint256"
                },
                {
                    "internalType": "address",
                    "name": "",
                    "type": "address"
                }
            ],
            "name": "userInfo",
            "outputs": [
                {
                    "internalType": "uint256",
                    "name": "amount",
                    "type": "uint256"
                },
                {
                    "internalType": "uint256",
                    "name": "rewardDebt",
                    "type": "uint256"
                }
            ],
            "stateMutability": "view",
            "type": "function"
        },
        {
            "inputs": [
                {
                    "internalType": "uint256",
                    "name": "_pid",
                    "type": "uint256"
                },
                {
                    "internalType": "uint256",
                    "name": "_amount",
                    "type": "uint256"
                }
            ],
            "name": "withdraw",
            "outputs": [],
            "stateMutability": "nonpayable",
            "type": "function"
        }
    ],
    "bytecode": "608060405260016008556000600a5534801561001a57600080fd5b50604051612720380380612720833981810160405260c081101561003d57600080fd5b508051602082015160408301516060840151608085015160a0909501519394929391929091600061006c6101fd565b600080546001600160a01b0319166001600160a01b0383169081178255604051929350917f8be0079c531659141344cd1fd0a4f28419497f9722a3daafe3b4186f6b6457e0908290a3506001808055600280546001600160a01b03199081166001600160a01b03998a16908117909255600380548216988a1698909817909755600480548816968916969096178655600580548816958916959095179094556007929092556009819055604080516080810182529384526103e860208501818152918501928352600060608601818152600b8054968701815590915294517f0175b7a638427703f0dbe7bb9bbf987a2551717b34e79f33b5b1008d1fa01db9949096029384018054909716959097169490941790945591517f0175b7a638427703f0dbe7bb9bbf987a2551717b34e79f33b5b1008d1fa01dba83015591517f0175b7a638427703f0dbe7bb9bbf987a2551717b34e79f33b5b1008d1fa01dbb82015590517f0175b7a638427703f0dbe7bb9bbf987a2551717b34e79f33b5b1008d1fa01dbc90910155600a55610201565b3390565b612510806102106000396000f3fe608060405234801561001057600080fd5b50600436106101da5760003560e01c806364482f79116101045780638dbb1e3a116100a2578063e06f926f11610071578063e06f926f146104af578063e2bbb158146104d5578063e5f6e9c9146104f8578063f2fde38b14610500576101da565b80638dbb1e3a1461041957806393f1a40b1461043c5780639718b52414610481578063a8b973a1146104a7576101da565b8063717559c3116100de578063717559c3146103f95780637cd07e471461040157806385f2aef2146104095780638da5cb5b14610411576101da565b806364482f791461039a5780636818e928146103c5578063715018a6146103f1576101da565b806341441d3b1161017c57806351eb05a61161014b57806351eb05a6146103505780635ffe61461461036d57806361d027b31461038a578063630b5ba114610392576101da565b806341441d3b146102eb578063441a3e7014610308578063454b06081461032b57806348cd4cb114610348576101da565b806317caf6f1116101b857806317caf6f1146102655780631eaaa0451461026d57806323cf3118146102a157806339e1be0e146102c7576101da565b8063081e3eda146101df5780631058d281146101f95780631526fe2714610218575b600080fd5b6101e7610526565b60408051918252519081900360200190f35b6102166004803603602081101561020f57600080fd5b503561052c565b005b6102356004803603602081101561022e57600080fd5b5035610710565b604080516001600160a01b0390951685526020850193909352838301919091526060830152519081900360800190f35b6101e7610751565b6102166004803603606081101561028357600080fd5b508035906001600160a01b0360208201351690604001351515610757565b610216600480360360208110156102b757600080fd5b50356001600160a01b03166107c8565b6102cf610842565b604080516001600160a01b039092168252519081900360200190f35b6102166004803603602081101561030157600080fd5b5035610851565b6102166004803603604081101561031e57600080fd5b50803590602001356109e5565b6102166004803603602081101561034157600080fd5b5035610bd9565b6101e7610e84565b6102166004803603602081101561036657600080fd5b5035610e8a565b6102166004803603602081101561038357600080fd5b5035611180565b6102cf6111ce565b6102166111dd565b610216600480360360608110156103b057600080fd5b508035906020810135906040013515156111fc565b6101e7600480360360408110156103db57600080fd5b50803590602001356001600160a01b031661137a565b6102166114de565b6102cf611580565b6102cf61158f565b6102cf61159e565b6102cf6115ad565b6101e76004803603604081101561042f57600080fd5b50803590602001356115bc565b6104686004803603604081101561045257600080fd5b50803590602001356001600160a01b03166115d7565b6040805192835260208301919091528051918290030190f35b6102166004803603602081101561049757600080fd5b50356001600160a01b03166115fb565b6101e76116c3565b610216600480360360208110156104c557600080fd5b50356001600160a01b03166116c9565b610216600480360360408110156104eb57600080fd5b5080359060200135611774565b6101e7611988565b6102166004803603602081101561051657600080fd5b50356001600160a01b031661198e565b600b5490565b6000600b60008154811061053c57fe5b600091825260208083203384527f13649b2456f1b42fef0f0040b3aaeabcd21a76a0f3f5defd4f583839455116e890915260409092208054600490920290920192508311156105c7576040805162461bcd60e51b81526020600482015260126024820152711dda5d1a191c985dce881b9bdd0819dbdbd960721b604482015290519081900360640190fd5b6105d16000610e8a565b600061060b826001015461060564e8d4a510006105ff876003015487600001546119f290919063ffffffff16565b90611a4b565b90611a8d565b9050801561061d5761061d3382611acf565b831561064757815461062f9085611a8d565b82558254610647906001600160a01b03163386611b40565b600383015482546106629164e8d4a51000916105ff916119f2565b600183015560035460408051632770a7eb60e21b81523360048201526024810187905290516001600160a01b0390921691639dc29fac9160448082019260009290919082900301818387803b1580156106ba57600080fd5b505af11580156106ce573d6000803e3d6000fd5b5050604080518781529051600093503392507ff279e6a1f5e320cca91135676d9cb6e44ca8a08c0b88342bcdb1144f6511b5689181900360200190a350505050565b600b818154811061071d57fe5b600091825260209091206004909102018054600182015460028301546003909301546001600160a01b039092169350919084565b600a5481565b61075f611b92565b6000546001600160a01b039081169116146107af576040805162461bcd60e51b8152602060048201819052602482015260008051602061245b833981519152604482015290519081900360640190fd5b6107b882611b96565b6107c3838383611c25565b505050565b6107d0611b92565b6000546001600160a01b03908116911614610820576040805162461bcd60e51b8152602060048201819052602482015260008051602061245b833981519152604482015290519081900360640190fd5b600680546001600160a01b0319166001600160a01b0392909216919091179055565b6003546001600160a01b031681565b6000600b60008154811061086157fe5b600091825260208083203384527f13649b2456f1b42fef0f0040b3aaeabcd21a76a0f3f5defd4f583839455116e8909152604083206004909202019250906108a890610e8a565b8054156108f15760006108dd826001015461060564e8d4a510006105ff876003015487600001546119f290919063ffffffff16565b905080156108ef576108ef3382611acf565b505b821561091d57815461090e906001600160a01b0316333086611d53565b805461091a9084611dad565b81555b600382015481546109389164e8d4a51000916105ff916119f2565b6001820155600354604080516340c10f1960e01b81523360048201526024810186905290516001600160a01b03909216916340c10f199160448082019260009290919082900301818387803b15801561099057600080fd5b505af11580156109a4573d6000803e3d6000fd5b5050604080518681529051600093503392507f90890809c654f11d6e72a28fa60149770a0d11ec6c92319d6ceb2bb0a4ea1a159181900360200190a3505050565b600b5482908110610a33576040805162461bcd60e51b8152602060048201526013602482015272141bdbdb08191bd95cc81b9bdd08195e1a5cdd606a1b604482015290519081900360640190fd5b82610a85576040805162461bcd60e51b815260206004820152601a60248201527f7769746864726177204d414b4920627920756e7374616b696e67000000000000604482015290519081900360640190fd5b6000600b8481548110610a9457fe5b60009182526020808320878452600c825260408085203386529092529220805460049092029092019250841115610b07576040805162461bcd60e51b81526020600482015260126024820152711dda5d1a191c985dce881b9bdd0819dbdbd960721b604482015290519081900360640190fd5b610b1085610e8a565b6000610b3e826001015461060564e8d4a510006105ff876003015487600001546119f290919063ffffffff16565b90508015610b5057610b503382611acf565b8415610b7a578154610b629086611a8d565b82558254610b7a906001600160a01b03163387611b40565b60038301548254610b959164e8d4a51000916105ff916119f2565b6001830155604080518681529051879133917ff279e6a1f5e320cca91135676d9cb6e44ca8a08c0b88342bcdb1144f6511b5689181900360200190a3505050505050565b600b5481908110610c27576040805162461bcd60e51b8152602060048201526013602482015272141bdbdb08191bd95cc81b9bdd08195e1a5cdd606a1b604482015290519081900360640190fd5b6006546001600160a01b0316610c7b576040805162461bcd60e51b815260206004820152601460248201527336b4b3b930ba329d1037379036b4b3b930ba37b960611b604482015290519081900360640190fd5b6000600b8381548110610c8a57fe5b600091825260208083206004928302018054604080516370a0823160e01b81523095810195909552519195506001600160a01b0316939284926370a0823192602480840193829003018186803b158015610ce357600080fd5b505afa158015610cf7573d6000803e3d6000fd5b505050506040513d6020811015610d0d57600080fd5b5051600654909150610d2c906001600160a01b03848116911683611e07565b6006546040805163ce5494bb60e01b81526001600160a01b0385811660048301529151600093929092169163ce5494bb9160248082019260209290919082900301818787803b158015610d7e57600080fd5b505af1158015610d92573d6000803e3d6000fd5b505050506040513d6020811015610da857600080fd5b5051604080516370a0823160e01b815230600482015290519192506001600160a01b038316916370a0823191602480820192602092909190829003018186803b158015610df457600080fd5b505afa158015610e08573d6000803e3d6000fd5b505050506040513d6020811015610e1e57600080fd5b50518214610e62576040805162461bcd60e51b815260206004820152600c60248201526b1b5a59dc985d194e8818985960a21b604482015290519081900360640190fd5b83546001600160a01b0319166001600160a01b03919091161790925550505050565b60095481565b600b5481908110610ed8576040805162461bcd60e51b8152602060048201526013602482015272141bdbdb08191bd95cc81b9bdd08195e1a5cdd606a1b604482015290519081900360640190fd5b6000600b8381548110610ee757fe5b9060005260206000209060040201905080600201544311610f08575061117c565b8054604080516370a0823160e01b815230600482015290516000926001600160a01b0316916370a08231916024808301926020929190829003018186803b158015610f5257600080fd5b505afa158015610f66573d6000803e3d6000fd5b505050506040513d6020811015610f7c57600080fd5b5051905080610f9257504360029091015561117c565b6000610fa28360020154436115bc565b90506000610fcf600a546105ff8660010154610fc9600754876119f290919063ffffffff16565b906119f2565b90506000610fe56124756105ff846103e86119f2565b60025460048054604080516340c10f1960e01b81526001600160a01b03928316938101939093526024830185905251939450848603939216916340c10f199160448082019260009290919082900301818387803b15801561104557600080fd5b505af1158015611059573d6000803e3d6000fd5b5050600254600554604080516340c10f1960e01b81526001600160a01b0392831660048201526024810188905290519190921693506340c10f199250604480830192600092919082900301818387803b1580156110b557600080fd5b505af11580156110c9573d6000803e3d6000fd5b5050600254600354604080516340c10f1960e01b81526001600160a01b0392831660048201526024810187905290519190921693506340c10f199250604480830192600092919082900301818387803b15801561112557600080fd5b505af1158015611139573d6000803e3d6000fd5b5050505061116761115c866105ff64e8d4a51000856119f290919063ffffffff16565b600388015490611dad565b60038701555050436002909401939093555050505b5050565b6005546001600160a01b031633146111c95760405162461bcd60e51b815260040180806020018281038252602a815260200180612410602a913960400191505060405180910390fd5b600855565b6005546001600160a01b031681565b600b5460005b8181101561117c576111f481610e8a565b6001016111e3565b611204611b92565b6000546001600160a01b03908116911614611254576040805162461bcd60e51b8152602060048201819052602482015260008051602061245b833981519152604482015290519081900360640190fd5b600b54839081106112a2576040805162461bcd60e51b8152602060048201526013602482015272141bdbdb08191bd95cc81b9bdd08195e1a5cdd606a1b604482015290519081900360640190fd5b600b5484106112ee576040805162461bcd60e51b8152602060048201526013602482015272141bdbdb08191bd95cc81b9bdd08195e1a5cdd606a1b604482015290519081900360640190fd5b81156112fc576112fc6111dd565b6000600b858154811061130b57fe5b906000526020600020906004020160010154905083600b868154811061132d57fe5b906000526020600020906004020160010181905550838114611373576113688461136283600a54611a8d90919063ffffffff16565b90611dad565b600a55611373611f1a565b5050505050565b600080600b848154811061138a57fe5b60009182526020808320878452600c825260408085206001600160a01b03898116875290845281862060049586029093016003810154815484516370a0823160e01b81523098810198909852935191985093969395939492909116926370a08231926024808301939192829003018186803b15801561140857600080fd5b505afa15801561141c573d6000803e3d6000fd5b505050506040513d602081101561143257600080fd5b505160028501549091504311801561144957508015155b156114a957600061145e8560020154436115bc565b90506000611485600a546105ff8860010154610fc9600754876119f290919063ffffffff16565b90506114a461149d846105ff8464e8d4a510006119f2565b8590611dad565b935050505b6114d1836001015461060564e8d4a510006105ff8688600001546119f290919063ffffffff16565b9450505050505b92915050565b6114e6611b92565b6000546001600160a01b03908116911614611536576040805162461bcd60e51b8152602060048201819052602482015260008051602061245b833981519152604482015290519081900360640190fd5b600080546040516001600160a01b03909116907f8be0079c531659141344cd1fd0a4f28419497f9722a3daafe3b4186f6b6457e0908390a3600080546001600160a01b0319169055565b6002546001600160a01b031681565b6006546001600160a01b031681565b6004546001600160a01b031681565b6000546001600160a01b031690565b6008546000906115d090610fc98486611a8d565b9392505050565b600c6020908152600092835260408084209091529082529020805460019091015482565b6005546001600160a01b031633148061161e57506004546001600160a01b031633145b61166f576040805162461bcd60e51b815260206004820152601d60248201527f74726561737572793a20696e76616c6964207065726d697373696f6e73000000604482015290519081900360640190fd5b600580546001600160a01b0383166001600160a01b0319909116811790915560408051918252517ffb26c00f7d7dba814173c8a2db3466cb26ee25fdcec8867af7da3aa1f296addd9181900360200190a150565b60085481565b6004546001600160a01b03163314611720576040805162461bcd60e51b81526020600482015260156024820152747465616d3a206c652077686f2061726520796f753f60581b604482015290519081900360640190fd5b600480546001600160a01b0383166001600160a01b0319909116811790915560408051918252517fd515b1ce27974a342708ce7a15e474c2aaf2a8b3d921b2184e970cdd715913369181900360200190a150565b600260015414156117cc576040805162461bcd60e51b815260206004820152601f60248201527f5265656e7472616e637947756172643a207265656e7472616e742063616c6c00604482015290519081900360640190fd5b6002600155600b548290811061181f576040805162461bcd60e51b8152602060048201526013602482015272141bdbdb08191bd95cc81b9bdd08195e1a5cdd606a1b604482015290519081900360640190fd5b82611871576040805162461bcd60e51b815260206004820152601760248201527f6465706f736974204d414b49206279207374616b696e67000000000000000000604482015290519081900360640190fd5b6000600b848154811061188057fe5b60009182526020808320878452600c825260408085203386529092529220600490910290910191506118b185610e8a565b8054156118fa5760006118e6826001015461060564e8d4a510006105ff876003015487600001546119f290919063ffffffff16565b905080156118f8576118f83382611acf565b505b8315611926578154611917906001600160a01b0316333087611d53565b80546119239085611dad565b81555b600382015481546119419164e8d4a51000916105ff916119f2565b6001820155604080518581529051869133917f90890809c654f11d6e72a28fa60149770a0d11ec6c92319d6ceb2bb0a4ea1a159181900360200190a3505060018055505050565b60075481565b611996611b92565b6000546001600160a01b039081169116146119e6576040805162461bcd60e51b8152602060048201819052602482015260008051602061245b833981519152604482015290519081900360640190fd5b6119ef81611fdf565b50565b600082611a01575060006114d8565b82820282848281611a0e57fe5b04146115d05760405162461bcd60e51b815260040180806020018281038252602181526020018061243a6021913960400191505060405180910390fd5b60006115d083836040518060400160405280601a81526020017f536166654d6174683a206469766973696f6e206279207a65726f00000000000081525061207f565b60006115d083836040518060400160405280601e81526020017f536166654d6174683a207375627472616374696f6e206f766572666c6f770000815250612121565b6003546040805163befa360560e01b81526001600160a01b038581166004830152602482018590529151919092169163befa360591604480830192600092919082900301818387803b158015611b2457600080fd5b505af1158015611b38573d6000803e3d6000fd5b505050505050565b604080516001600160a01b038416602482015260448082018490528251808303909101815260649091019091526020810180516001600160e01b031663a9059cbb60e01b1790526107c390849061217b565b3390565b600b5460005b818110156107c357826001600160a01b0316600b8281548110611bbb57fe5b60009182526020909120600490910201546001600160a01b03161415611c1d576040805162461bcd60e51b81526020600482015260126024820152711859190e88195e1a5cdd1a5b99c81c1bdbdb60721b604482015290519081900360640190fd5b600101611b9c565b8015611c3357611c336111dd565b60006009544311611c4657600954611c48565b435b600a54909150611c589085611dad565b600a55604080516080810182526001600160a01b03858116825260208201878152928201848152600060608401818152600b8054600181018255925293517f0175b7a638427703f0dbe7bb9bbf987a2551717b34e79f33b5b1008d1fa01db9600490920291820180546001600160a01b031916919094161790925592517f0175b7a638427703f0dbe7bb9bbf987a2551717b34e79f33b5b1008d1fa01dba82015591517f0175b7a638427703f0dbe7bb9bbf987a2551717b34e79f33b5b1008d1fa01dbb830155517f0175b7a638427703f0dbe7bb9bbf987a2551717b34e79f33b5b1008d1fa01dbc90910155611d4d611f1a565b50505050565b604080516001600160a01b0380861660248301528416604482015260648082018490528251808303909101815260849091019091526020810180516001600160e01b03166323b872dd60e01b179052611d4d90859061217b565b6000828201838110156115d0576040805162461bcd60e51b815260206004820152601b60248201527f536166654d6174683a206164646974696f6e206f766572666c6f770000000000604482015290519081900360640190fd5b801580611e8d575060408051636eb1769f60e11b81523060048201526001600160a01b03848116602483015291519185169163dd62ed3e91604480820192602092909190829003018186803b158015611e5f57600080fd5b505afa158015611e73573d6000803e3d6000fd5b505050506040513d6020811015611e8957600080fd5b5051155b611ec85760405162461bcd60e51b81526004018080602001828103825260368152602001806124a56036913960400191505060405180910390fd5b604080516001600160a01b038416602482015260448082018490528251808303909101815260649091019091526020810180516001600160e01b031663095ea7b360e01b1790526107c390849061217b565b600b54600060015b82811015611f6557611f5b600b8281548110611f3a57fe5b90600052602060002090600402016001015483611dad90919063ffffffff16565b9150600101611f22565b50801561117c57611f77816003611a4b565b9050611fb181611362600b600081548110611f8e57fe5b906000526020600020906004020160010154600a54611a8d90919063ffffffff16565b600a8190555080600b600081548110611fc657fe5b9060005260206000209060040201600101819055505050565b6001600160a01b0381166120245760405162461bcd60e51b81526004018080602001828103825260268152602001806123ea6026913960400191505060405180910390fd5b600080546040516001600160a01b03808516939216917f8be0079c531659141344cd1fd0a4f28419497f9722a3daafe3b4186f6b6457e091a3600080546001600160a01b0319166001600160a01b0392909216919091179055565b6000818361210b5760405162461bcd60e51b81526004018080602001828103825283818151815260200191508051906020019080838360005b838110156120d05781810151838201526020016120b8565b50505050905090810190601f1680156120fd5780820380516001836020036101000a031916815260200191505b509250505060405180910390fd5b50600083858161211757fe5b0495945050505050565b600081848411156121735760405162461bcd60e51b81526020600482018181528351602484015283519092839260449091019190850190808383600083156120d05781810151838201526020016120b8565b505050900390565b60606121d0826040518060400160405280602081526020017f5361666548524332303a206c6f772d6c6576656c2063616c6c206661696c6564815250856001600160a01b031661222c9092919063ffffffff16565b8051909150156107c3578080602001905160208110156121ef57600080fd5b50516107c35760405162461bcd60e51b815260040180806020018281038252602a81526020018061247b602a913960400191505060405180910390fd5b606061223b8484600085612243565b949350505050565b606061224e856123b0565b61229f576040805162461bcd60e51b815260206004820152601d60248201527f416464726573733a2063616c6c20746f206e6f6e2d636f6e7472616374000000604482015290519081900360640190fd5b60006060866001600160a01b031685876040518082805190602001908083835b602083106122de5780518252601f1990920191602091820191016122bf565b6001836020036101000a03801982511681845116808217855250505050505090500191505060006040518083038185875af1925050503d8060008114612340576040519150601f19603f3d011682016040523d82523d6000602084013e612345565b606091505b5091509150811561235957915061223b9050565b8051156123695780518082602001fd5b60405162461bcd60e51b81526020600482018181528651602484015286518793919283926044019190850190808383600083156120d05781810151838201526020016120b8565b6000813f7fc5d2460186f7233c927e7db2dcc703c0e500b653ca82273b7bfad8045d85a47081811480159061223b57505015159291505056fe4f776e61626c653a206e6577206f776e657220697320746865207a65726f20616464726573737570646174654d756c7469706c6965723a206f6e6c79207472656173757279206d617920757064617465536166654d6174683a206d756c7469706c69636174696f6e206f766572666c6f774f776e61626c653a2063616c6c6572206973206e6f7420746865206f776e65725361666548524332303a204852433230206f7065726174696f6e20646964206e6f7420737563636565645361666548524332303a20617070726f76652066726f6d206e6f6e2d7a65726f20746f206e6f6e2d7a65726f20616c6c6f77616e6365a26469706673582212203b9ec53b6746db53bf0725649fd3368ff782f51b15843cbd25bdbe0f76239fdc64736f6c634300060c0033",
    "sourcePath": "/Users/Uni/Documents/GitHub/makiswap/makiswap-protocol/contracts/farm/MasterChef.sol",
    "compiler": {
        "name": "solc",
        "version": "0.6.12+commit.27d51765"
    },
    "functionHashes": {
        "add(uint256,address,bool)": "1eaaa045",
        "bonusMultiplier()": "a8b973a1",
        "deposit(uint256,uint256)": "e2bbb158",
        "enterStaking(uint256)": "41441d3b",
        "getMultiplier(uint256,uint256)": "8dbb1e3a",
        "leaveStaking(uint256)": "1058d281",
        "maki()": "717559c3",
        "makiPerBlock()": "e5f6e9c9",
        "massUpdatePools()": "630b5ba1",
        "migrate(uint256)": "454b0608",
        "migrator()": "7cd07e47",
        "newTeam(address)": "e06f926f",
        "newTreasury(address)": "9718b524",
        "owner()": "8da5cb5b",
        "pendingMaki(uint256,address)": "6818e928",
        "poolInfo(uint256)": "1526fe27",
        "poolLength()": "081e3eda",
        "renounceOwnership()": "715018a6",
        "set(uint256,uint256,bool)": "64482f79",
        "setMigrator(address)": "23cf3118",
        "soy()": "39e1be0e",
        "startBlock()": "48cd4cb1",
        "team()": "85f2aef2",
        "totalAllocPoint()": "17caf6f1",
        "transferOwnership(address)": "f2fde38b",
        "treasury()": "61d027b3",
        "updateMultiplier(uint256)": "5ffe6146",
        "updatePool(uint256)": "51eb05a6",
        "userInfo(uint256,address)": "93f1a40b",
        "withdraw(uint256,uint256)": "441a3e70"
    },
    "gasEstimates": {
        "creation": {
            "codeDepositCost": "1897600",
            "executionCost": "infinite",
            "totalCost": "infinite"
        },
        "external": {
            "add(uint256,address,bool)": "infinite",
            "bonusMultiplier()": "1109",
            "deposit(uint256,uint256)": "infinite",
            "enterStaking(uint256)": "infinite",
            "getMultiplier(uint256,uint256)": "infinite",
            "leaveStaking(uint256)": "infinite",
            "maki()": "1082",
            "makiPerBlock()": "1086",
            "massUpdatePools()": "infinite",
            "migrate(uint256)": "infinite",
            "migrator()": "1104",
            "newTeam(address)": "23013",
            "newTreasury(address)": "23903",
            "owner()": "1148",
            "pendingMaki(uint256,address)": "infinite",
            "poolInfo(uint256)": "4583",
            "poolLength()": "1045",
            "renounceOwnership()": "infinite",
            "set(uint256,uint256,bool)": "infinite",
            "setMigrator(address)": "infinite",
            "soy()": "1149",
            "startBlock()": "1110",
            "team()": "1126",
            "totalAllocPoint()": "1044",
            "transferOwnership(address)": "infinite",
            "treasury()": "1126",
            "updateMultiplier(uint256)": "infinite",
            "updatePool(uint256)": "infinite",
            "userInfo(uint256,address)": "2117",
            "withdraw(uint256,uint256)": "infinite"
        },
        "internal": {
            "addPool(uint256,contract IHRC20,bool)": "infinite",
            "checkPoolDuplicate(contract IHRC20)": "infinite",
            "safeMakiTransfer(address,uint256)": "infinite",
            "updateStakingPool()": "infinite"
        }
    }
}